{
	"data": {
		"bytecode": {
			"linkReferences": {},
			"object": "608060405234801561001057600080fd5b50611b17806100206000396000f3fe608060405234801561001057600080fd5b50600436106100f55760003560e01c80639b56a84811610097578063cea809b811610066578063cea809b81461030c578063d1a125711461033d578063d72b9bd81461036d578063fde3ad601461039d576100f5565b80639b56a8481461024b578063a57587fb1461027b578063b260c29c146102ac578063c1ff96f9146102dc576100f5565b80634712679b116100d35780634712679b1461018a5780636f0f608e146101ba5780637a9e168d146101ea578063820002691461021a576100f5565b806316a53150146100fa5780631ff8a0421461012a578063294f1b2b1461015a575b600080fd5b610114600480360381019061010f91906114aa565b6103cd565b60405161012191906116a3565b60405180910390f35b610144600480360381019061013f91906114d7565b6103e5565b6040516101519190611648565b60405180910390f35b610174600480360381019061016f91906114d7565b6103f9565b60405161018191906116a3565b60405180910390f35b6101a4600480360381019061019f91906114d7565b610413565b6040516101b191906116a3565b60405180910390f35b6101d460048036038101906101cf91906114d7565b61042d565b6040516101e191906116a3565b60405180910390f35b61020460048036038101906101ff91906114aa565b610447565b604051610211919061172b565b60405180910390f35b610234600480360381019061022f9190611557565b610459565b604051610242929190611746565b60405180910390f35b61026560048036038101906102609190611517565b610471565b60405161027291906116e7565b60405180910390f35b610295600480360381019061029091906114d7565b610485565b6040516102a39291906116be565b60405180910390f35b6102c660048036038101906102c191906114d7565b6104aa565b6040516102d391906116a3565b60405180910390f35b6102f660048036038101906102f191906114aa565b6104c4565b60405161030391906116a3565b60405180910390f35b61032660048036038101906103219190611517565b6104dc565b604051610334929190611702565b60405180910390f35b610357600480360381019061035291906114d7565b6104f4565b60405161036491906116a3565b60405180910390f35b61038760048036038101906103829190611517565b61050e565b60405161039491906116e7565b60405180910390f35b6103b760048036038101906103b291906114d7565b610522565b6040516103c491906116a3565b60405180910390f35b6103d56113f2565b6103de8261053c565b9050919050565b60006103f18383610642565b905092915050565b6104016113f2565b61040b8383610755565b905092915050565b61041b6113f2565b6104258383610889565b905092915050565b6104356113f2565b61043f83836109bd565b905092915050565b600061045282610aec565b9050919050565b6000806104668484610ba5565b915091509250929050565b600061047d8383610bc9565b905092915050565b61048d6113f2565b6104956113f2565b61049f8484610c26565b915091509250929050565b6104b26113f2565b6104bc8383610dca565b905092915050565b6104cc6113f2565b6104d582610efc565b9050919050565b6000806104e98484610fec565b915091509250929050565b6104fc6113f2565b6105068383611034565b905092915050565b600061051a838361120d565b905092915050565b61052a6113f2565b6105348383611237565b905092915050565b6105446113f2565b81600081602001516fffffffffffffffffffffffffffffffff16141561059f576040517f08c379a000000000000000000000000000000000000000000000000000000000815260040161059690611683565b60405180910390fd5b600083600001516fffffffffffffffffffffffffffffffff1614156105f9576040517f08c379a00000000000000000000000000000000000000000000000000000000081526004016105f090611683565b60405180910390fd5b604051806040016040528084602001516fffffffffffffffffffffffffffffffff16815260200184600001516fffffffffffffffffffffffffffffffff16815250915050919050565b600082600081602001516fffffffffffffffffffffffffffffffff16141561069f576040517f08c379a000000000000000000000000000000000000000000000000000000000815260040161069690611683565b60405180910390fd5b82600081602001516fffffffffffffffffffffffffffffffff1614156106fa576040517f08c379a00000000000000000000000000000000000000000000000000000000081526004016106f190611683565b60405180910390fd5b6107048585610c26565b809550819650505083600001516fffffffffffffffffffffffffffffffff1685600001516fffffffffffffffffffffffffffffffff1610610748576001925061074d565b600092505b505092915050565b61075d6113f2565b82600081602001516fffffffffffffffffffffffffffffffff1614156107b8576040517f08c379a00000000000000000000000000000000000000000000000000000000081526004016107af90611683565b60405180910390fd5b82600081602001516fffffffffffffffffffffffffffffffff161415610813576040517f08c379a000000000000000000000000000000000000000000000000000000000815260040161080a90611683565b60405180910390fd5b600084600001516fffffffffffffffffffffffffffffffff16141561086d576040517f08c379a000000000000000000000000000000000000000000000000000000000815260040161086490611683565b60405180910390fd5b61087f8561087a8661053c565b611034565b9250505092915050565b6108916113f2565b82600081602001516fffffffffffffffffffffffffffffffff1614156108ec576040517f08c379a00000000000000000000000000000000000000000000000000000000081526004016108e390611683565b60405180910390fd5b82600081602001516fffffffffffffffffffffffffffffffff161415610947576040517f08c379a000000000000000000000000000000000000000000000000000000000815260040161093e90611683565b60405180910390fd5b600084600001516fffffffffffffffffffffffffffffffff1614156109a1576040517f08c379a000000000000000000000000000000000000000000000000000000000815260040161099890611683565b60405180910390fd5b6109b3856109ae8661053c565b6109bd565b9250505092915050565b6109c56113f2565b82600081602001516fffffffffffffffffffffffffffffffff161415610a20576040517f08c379a0000000000000000000000000000000000000000000000000000000008152600401610a1790611683565b60405180910390fd5b82600081602001516fffffffffffffffffffffffffffffffff161415610a7b576040517f08c379a0000000000000000000000000000000000000000000000000000000008152600401610a7290611683565b60405180910390fd5b610ae2604051806040016040528086600001518860000151610a9d919061184d565b6fffffffffffffffffffffffffffffffff16815260200186602001518860200151610ac8919061184d565b6fffffffffffffffffffffffffffffffff16815250610efc565b9250505092915050565b600081600081602001516fffffffffffffffffffffffffffffffff161415610b49576040517f08c379a0000000000000000000000000000000000000000000000000000000008152600401610b4090611683565b60405180910390fd5b82602001516fffffffffffffffffffffffffffffffff1670010000000000000000000000000000000084600001516fffffffffffffffffffffffffffffffff16610b939190611897565b610b9d919061181c565b915050919050565b60008082841115610bbb57838391509150610bc2565b8284915091505b9250929050565b6000610bd58383610fec565b80935081945050505b6000826fffffffffffffffffffffffffffffffff1614610c1d578183610c049190611988565b9250610c108383610fec565b8093508194505050610bde565b82905092915050565b610c2e6113f2565b610c366113f2565b83600081602001516fffffffffffffffffffffffffffffffff161415610c91576040517f08c379a0000000000000000000000000000000000000000000000000000000008152600401610c8890611683565b60405180910390fd5b83600081602001516fffffffffffffffffffffffffffffffff161415610cec576040517f08c379a0000000000000000000000000000000000000000000000000000000008152600401610ce390611683565b60405180910390fd5b6000610d008760200151876020015161120d565b905060008760000151886020015183610d1991906117eb565b610d23919061184d565b905060008760000151886020015184610d3c91906117eb565b610d46919061184d565b90506040518060400160405280836fffffffffffffffffffffffffffffffff168152602001846fffffffffffffffffffffffffffffffff168152506040518060400160405280836fffffffffffffffffffffffffffffffff168152602001856fffffffffffffffffffffffffffffffff168152509650965050505050509250929050565b610dd26113f2565b82600081602001516fffffffffffffffffffffffffffffffff161415610e2d576040517f08c379a0000000000000000000000000000000000000000000000000000000008152600401610e2490611683565b60405180910390fd5b82600081602001516fffffffffffffffffffffffffffffffff161415610e88576040517f08c379a0000000000000000000000000000000000000000000000000000000008152600401610e7f90611683565b60405180910390fd5b610e928585610c26565b8095508196505050610ef2604051806040016040528086600001518860000151610ebc91906117a5565b6fffffffffffffffffffffffffffffffff16815260200187602001516fffffffffffffffffffffffffffffffff16815250610efc565b9250505092915050565b610f046113f2565b81600081602001516fffffffffffffffffffffffffffffffff161415610f5f576040517f08c379a0000000000000000000000000000000000000000000000000000000008152600401610f5690611683565b60405180910390fd5b610f68836113b2565b15610fe2576000610f8184600001518560200151610bc9565b90506040518060400160405280828660000151610f9e91906117eb565b6fffffffffffffffffffffffffffffffff168152602001828660200151610fc591906117eb565b6fffffffffffffffffffffffffffffffff16815250925050610fe6565b8291505b50919050565b600080826fffffffffffffffffffffffffffffffff16846fffffffffffffffffffffffffffffffff1611156110265783839150915061102d565b8284915091505b9250929050565b61103c6113f2565b82600081602001516fffffffffffffffffffffffffffffffff161415611097576040517f08c379a000000000000000000000000000000000000000000000000000000000815260040161108e90611683565b60405180910390fd5b82600081602001516fffffffffffffffffffffffffffffffff1614156110f2576040517f08c379a00000000000000000000000000000000000000000000000000000000081526004016110e990611683565b60405180910390fd5b6110fb85610efc565b945061110684610efc565b93506000611153604051806040016040528088600001516fffffffffffffffffffffffffffffffff16815260200187602001516fffffffffffffffffffffffffffffffff16815250610efc565b905060006111a0604051806040016040528088600001516fffffffffffffffffffffffffffffffff16815260200189602001516fffffffffffffffffffffffffffffffff16815250610efc565b90506040518060400160405280826000015184600001516111c1919061184d565b6fffffffffffffffffffffffffffffffff168152602001826020015184602001516111ec919061184d565b6fffffffffffffffffffffffffffffffff1681525094505050505092915050565b60008161121a8484610bc9565b8461122591906117eb565b61122f919061184d565b905092915050565b61123f6113f2565b82600081602001516fffffffffffffffffffffffffffffffff16141561129a576040517f08c379a000000000000000000000000000000000000000000000000000000000815260040161129190611683565b60405180910390fd5b82600081602001516fffffffffffffffffffffffffffffffff1614156112f5576040517f08c379a00000000000000000000000000000000000000000000000000000000081526004016112ec90611683565b60405180910390fd5b6112ff8585610642565b61133e576040517f08c379a000000000000000000000000000000000000000000000000000000000815260040161133590611663565b60405180910390fd5b6113488585610c26565b80955081965050506113a860405180604001604052808660000151886000015161137291906118f1565b6fffffffffffffffffffffffffffffffff16815260200187602001516fffffffffffffffffffffffffffffffff16815250610efc565b9250505092915050565b600060016113c883600001518460200151610bc9565b6fffffffffffffffffffffffffffffffff16146113e857600190506113ed565b600090505b919050565b604051806040016040528060006fffffffffffffffffffffffffffffffff16815260200160006fffffffffffffffffffffffffffffffff1681525090565b60006040828403121561144657611445611a46565b5b611450604061176f565b9050600061146084828501611480565b600083015250602061147484828501611480565b60208301525092915050565b60008135905061148f81611ab3565b92915050565b6000813590506114a481611aca565b92915050565b6000604082840312156114c0576114bf611a4b565b5b60006114ce84828501611430565b91505092915050565b600080608083850312156114ee576114ed611a4b565b5b60006114fc85828601611430565b925050604061150d85828601611430565b9150509250929050565b6000806040838503121561152e5761152d611a4b565b5b600061153c85828601611480565b925050602061154d85828601611480565b9150509250929050565b6000806040838503121561156e5761156d611a4b565b5b600061157c85828601611495565b925050602061158d85828601611495565b9150509250929050565b6115a081611925565b82525050565b60006115b3601083611794565b91506115be82611a61565b602082019050919050565b60006115d6601783611794565b91506115e182611a8a565b602082019050919050565b604082016000820151611602600085018261161b565b506020820151611615602085018261161b565b50505050565b61162481611931565b82525050565b61163381611931565b82525050565b6116428161194d565b82525050565b600060208201905061165d6000830184611597565b92915050565b6000602082019050818103600083015261167c816115a6565b9050919050565b6000602082019050818103600083015261169c816115c9565b9050919050565b60006040820190506116b860008301846115ec565b92915050565b60006080820190506116d360008301856115ec565b6116e060408301846115ec565b9392505050565b60006020820190506116fc600083018461162a565b92915050565b6000604082019050611717600083018561162a565b611724602083018461162a565b9392505050565b60006020820190506117406000830184611639565b92915050565b600060408201905061175b6000830185611639565b6117686020830184611639565b9392505050565b600061177961178a565b90506117858282611957565b919050565b6000604051905090565b600082825260208201905092915050565b60006117b082611931565b91506117bb83611931565b9250826fffffffffffffffffffffffffffffffff038211156117e0576117df6119b9565b5b828201905092915050565b60006117f682611931565b915061180183611931565b925082611811576118106119e8565b5b828204905092915050565b60006118278261194d565b91506118328361194d565b925082611842576118416119e8565b5b828204905092915050565b600061185882611931565b915061186383611931565b9250816fffffffffffffffffffffffffffffffff048311821515161561188c5761188b6119b9565b5b828202905092915050565b60006118a28261194d565b91506118ad8361194d565b9250817fffffffffffffffffffffffffffffffffffffffffffffffffffffffffffffffff04831182151516156118e6576118e56119b9565b5b828202905092915050565b60006118fc82611931565b915061190783611931565b92508282101561191a576119196119b9565b5b828203905092915050565b60008115159050919050565b60006fffffffffffffffffffffffffffffffff82169050919050565b6000819050919050565b61196082611a50565b810181811067ffffffffffffffff8211171561197f5761197e611a17565b5b80604052505050565b600061199382611931565b915061199e83611931565b9250826119ae576119ad6119e8565b5b828206905092915050565b7f4e487b7100000000000000000000000000000000000000000000000000000000600052601160045260246000fd5b7f4e487b7100000000000000000000000000000000000000000000000000000000600052601260045260246000fd5b7f4e487b7100000000000000000000000000000000000000000000000000000000600052604160045260246000fd5b600080fd5b600080fd5b6000601f19601f8301169050919050565b7f5475706c653a20556e646572666c6f7700000000000000000000000000000000600082015250565b7f64656e6f6d696e61746f722063616e6e6f742062652030000000000000000000600082015250565b611abc81611931565b8114611ac757600080fd5b50565b611ad38161194d565b8114611ade57600080fd5b5056fea264697066735822122016be63a29f3c0a7c10dc56398269afbd1f7e981830c98eb427481d401d94306a64736f6c63430008060033",
			"opcodes": "PUSH1 0x80 PUSH1 0x40 MSTORE CALLVALUE DUP1 ISZERO PUSH2 0x10 JUMPI PUSH1 0x0 DUP1 REVERT JUMPDEST POP PUSH2 0x1B17 DUP1 PUSH2 0x20 PUSH1 0x0 CODECOPY PUSH1 0x0 RETURN INVALID PUSH1 0x80 PUSH1 0x40 MSTORE CALLVALUE DUP1 ISZERO PUSH2 0x10 JUMPI PUSH1 0x0 DUP1 REVERT JUMPDEST POP PUSH1 0x4 CALLDATASIZE LT PUSH2 0xF5 JUMPI PUSH1 0x0 CALLDATALOAD PUSH1 0xE0 SHR DUP1 PUSH4 0x9B56A848 GT PUSH2 0x97 JUMPI DUP1 PUSH4 0xCEA809B8 GT PUSH2 0x66 JUMPI DUP1 PUSH4 0xCEA809B8 EQ PUSH2 0x30C JUMPI DUP1 PUSH4 0xD1A12571 EQ PUSH2 0x33D JUMPI DUP1 PUSH4 0xD72B9BD8 EQ PUSH2 0x36D JUMPI DUP1 PUSH4 0xFDE3AD60 EQ PUSH2 0x39D JUMPI PUSH2 0xF5 JUMP JUMPDEST DUP1 PUSH4 0x9B56A848 EQ PUSH2 0x24B JUMPI DUP1 PUSH4 0xA57587FB EQ PUSH2 0x27B JUMPI DUP1 PUSH4 0xB260C29C EQ PUSH2 0x2AC JUMPI DUP1 PUSH4 0xC1FF96F9 EQ PUSH2 0x2DC JUMPI PUSH2 0xF5 JUMP JUMPDEST DUP1 PUSH4 0x4712679B GT PUSH2 0xD3 JUMPI DUP1 PUSH4 0x4712679B EQ PUSH2 0x18A JUMPI DUP1 PUSH4 0x6F0F608E EQ PUSH2 0x1BA JUMPI DUP1 PUSH4 0x7A9E168D EQ PUSH2 0x1EA JUMPI DUP1 PUSH4 0x82000269 EQ PUSH2 0x21A JUMPI PUSH2 0xF5 JUMP JUMPDEST DUP1 PUSH4 0x16A53150 EQ PUSH2 0xFA JUMPI DUP1 PUSH4 0x1FF8A042 EQ PUSH2 0x12A JUMPI DUP1 PUSH4 0x294F1B2B EQ PUSH2 0x15A JUMPI JUMPDEST PUSH1 0x0 DUP1 REVERT JUMPDEST PUSH2 0x114 PUSH1 0x4 DUP1 CALLDATASIZE SUB DUP2 ADD SWAP1 PUSH2 0x10F SWAP2 SWAP1 PUSH2 0x14AA JUMP JUMPDEST PUSH2 0x3CD JUMP JUMPDEST PUSH1 0x40 MLOAD PUSH2 0x121 SWAP2 SWAP1 PUSH2 0x16A3 JUMP JUMPDEST PUSH1 0x40 MLOAD DUP1 SWAP2 SUB SWAP1 RETURN JUMPDEST PUSH2 0x144 PUSH1 0x4 DUP1 CALLDATASIZE SUB DUP2 ADD SWAP1 PUSH2 0x13F SWAP2 SWAP1 PUSH2 0x14D7 JUMP JUMPDEST PUSH2 0x3E5 JUMP JUMPDEST PUSH1 0x40 MLOAD PUSH2 0x151 SWAP2 SWAP1 PUSH2 0x1648 JUMP JUMPDEST PUSH1 0x40 MLOAD DUP1 SWAP2 SUB SWAP1 RETURN JUMPDEST PUSH2 0x174 PUSH1 0x4 DUP1 CALLDATASIZE SUB DUP2 ADD SWAP1 PUSH2 0x16F SWAP2 SWAP1 PUSH2 0x14D7 JUMP JUMPDEST PUSH2 0x3F9 JUMP JUMPDEST PUSH1 0x40 MLOAD PUSH2 0x181 SWAP2 SWAP1 PUSH2 0x16A3 JUMP JUMPDEST PUSH1 0x40 MLOAD DUP1 SWAP2 SUB SWAP1 RETURN JUMPDEST PUSH2 0x1A4 PUSH1 0x4 DUP1 CALLDATASIZE SUB DUP2 ADD SWAP1 PUSH2 0x19F SWAP2 SWAP1 PUSH2 0x14D7 JUMP JUMPDEST PUSH2 0x413 JUMP JUMPDEST PUSH1 0x40 MLOAD PUSH2 0x1B1 SWAP2 SWAP1 PUSH2 0x16A3 JUMP JUMPDEST PUSH1 0x40 MLOAD DUP1 SWAP2 SUB SWAP1 RETURN JUMPDEST PUSH2 0x1D4 PUSH1 0x4 DUP1 CALLDATASIZE SUB DUP2 ADD SWAP1 PUSH2 0x1CF SWAP2 SWAP1 PUSH2 0x14D7 JUMP JUMPDEST PUSH2 0x42D JUMP JUMPDEST PUSH1 0x40 MLOAD PUSH2 0x1E1 SWAP2 SWAP1 PUSH2 0x16A3 JUMP JUMPDEST PUSH1 0x40 MLOAD DUP1 SWAP2 SUB SWAP1 RETURN JUMPDEST PUSH2 0x204 PUSH1 0x4 DUP1 CALLDATASIZE SUB DUP2 ADD SWAP1 PUSH2 0x1FF SWAP2 SWAP1 PUSH2 0x14AA JUMP JUMPDEST PUSH2 0x447 JUMP JUMPDEST PUSH1 0x40 MLOAD PUSH2 0x211 SWAP2 SWAP1 PUSH2 0x172B JUMP JUMPDEST PUSH1 0x40 MLOAD DUP1 SWAP2 SUB SWAP1 RETURN JUMPDEST PUSH2 0x234 PUSH1 0x4 DUP1 CALLDATASIZE SUB DUP2 ADD SWAP1 PUSH2 0x22F SWAP2 SWAP1 PUSH2 0x1557 JUMP JUMPDEST PUSH2 0x459 JUMP JUMPDEST PUSH1 0x40 MLOAD PUSH2 0x242 SWAP3 SWAP2 SWAP1 PUSH2 0x1746 JUMP JUMPDEST PUSH1 0x40 MLOAD DUP1 SWAP2 SUB SWAP1 RETURN JUMPDEST PUSH2 0x265 PUSH1 0x4 DUP1 CALLDATASIZE SUB DUP2 ADD SWAP1 PUSH2 0x260 SWAP2 SWAP1 PUSH2 0x1517 JUMP JUMPDEST PUSH2 0x471 JUMP JUMPDEST PUSH1 0x40 MLOAD PUSH2 0x272 SWAP2 SWAP1 PUSH2 0x16E7 JUMP JUMPDEST PUSH1 0x40 MLOAD DUP1 SWAP2 SUB SWAP1 RETURN JUMPDEST PUSH2 0x295 PUSH1 0x4 DUP1 CALLDATASIZE SUB DUP2 ADD SWAP1 PUSH2 0x290 SWAP2 SWAP1 PUSH2 0x14D7 JUMP JUMPDEST PUSH2 0x485 JUMP JUMPDEST PUSH1 0x40 MLOAD PUSH2 0x2A3 SWAP3 SWAP2 SWAP1 PUSH2 0x16BE JUMP JUMPDEST PUSH1 0x40 MLOAD DUP1 SWAP2 SUB SWAP1 RETURN JUMPDEST PUSH2 0x2C6 PUSH1 0x4 DUP1 CALLDATASIZE SUB DUP2 ADD SWAP1 PUSH2 0x2C1 SWAP2 SWAP1 PUSH2 0x14D7 JUMP JUMPDEST PUSH2 0x4AA JUMP JUMPDEST PUSH1 0x40 MLOAD PUSH2 0x2D3 SWAP2 SWAP1 PUSH2 0x16A3 JUMP JUMPDEST PUSH1 0x40 MLOAD DUP1 SWAP2 SUB SWAP1 RETURN JUMPDEST PUSH2 0x2F6 PUSH1 0x4 DUP1 CALLDATASIZE SUB DUP2 ADD SWAP1 PUSH2 0x2F1 SWAP2 SWAP1 PUSH2 0x14AA JUMP JUMPDEST PUSH2 0x4C4 JUMP JUMPDEST PUSH1 0x40 MLOAD PUSH2 0x303 SWAP2 SWAP1 PUSH2 0x16A3 JUMP JUMPDEST PUSH1 0x40 MLOAD DUP1 SWAP2 SUB SWAP1 RETURN JUMPDEST PUSH2 0x326 PUSH1 0x4 DUP1 CALLDATASIZE SUB DUP2 ADD SWAP1 PUSH2 0x321 SWAP2 SWAP1 PUSH2 0x1517 JUMP JUMPDEST PUSH2 0x4DC JUMP JUMPDEST PUSH1 0x40 MLOAD PUSH2 0x334 SWAP3 SWAP2 SWAP1 PUSH2 0x1702 JUMP JUMPDEST PUSH1 0x40 MLOAD DUP1 SWAP2 SUB SWAP1 RETURN JUMPDEST PUSH2 0x357 PUSH1 0x4 DUP1 CALLDATASIZE SUB DUP2 ADD SWAP1 PUSH2 0x352 SWAP2 SWAP1 PUSH2 0x14D7 JUMP JUMPDEST PUSH2 0x4F4 JUMP JUMPDEST PUSH1 0x40 MLOAD PUSH2 0x364 SWAP2 SWAP1 PUSH2 0x16A3 JUMP JUMPDEST PUSH1 0x40 MLOAD DUP1 SWAP2 SUB SWAP1 RETURN JUMPDEST PUSH2 0x387 PUSH1 0x4 DUP1 CALLDATASIZE SUB DUP2 ADD SWAP1 PUSH2 0x382 SWAP2 SWAP1 PUSH2 0x1517 JUMP JUMPDEST PUSH2 0x50E JUMP JUMPDEST PUSH1 0x40 MLOAD PUSH2 0x394 SWAP2 SWAP1 PUSH2 0x16E7 JUMP JUMPDEST PUSH1 0x40 MLOAD DUP1 SWAP2 SUB SWAP1 RETURN JUMPDEST PUSH2 0x3B7 PUSH1 0x4 DUP1 CALLDATASIZE SUB DUP2 ADD SWAP1 PUSH2 0x3B2 SWAP2 SWAP1 PUSH2 0x14D7 JUMP JUMPDEST PUSH2 0x522 JUMP JUMPDEST PUSH1 0x40 MLOAD PUSH2 0x3C4 SWAP2 SWAP1 PUSH2 0x16A3 JUMP JUMPDEST PUSH1 0x40 MLOAD DUP1 SWAP2 SUB SWAP1 RETURN JUMPDEST PUSH2 0x3D5 PUSH2 0x13F2 JUMP JUMPDEST PUSH2 0x3DE DUP3 PUSH2 0x53C JUMP JUMPDEST SWAP1 POP SWAP2 SWAP1 POP JUMP JUMPDEST PUSH1 0x0 PUSH2 0x3F1 DUP4 DUP4 PUSH2 0x642 JUMP JUMPDEST SWAP1 POP SWAP3 SWAP2 POP POP JUMP JUMPDEST PUSH2 0x401 PUSH2 0x13F2 JUMP JUMPDEST PUSH2 0x40B DUP4 DUP4 PUSH2 0x755 JUMP JUMPDEST SWAP1 POP SWAP3 SWAP2 POP POP JUMP JUMPDEST PUSH2 0x41B PUSH2 0x13F2 JUMP JUMPDEST PUSH2 0x425 DUP4 DUP4 PUSH2 0x889 JUMP JUMPDEST SWAP1 POP SWAP3 SWAP2 POP POP JUMP JUMPDEST PUSH2 0x435 PUSH2 0x13F2 JUMP JUMPDEST PUSH2 0x43F DUP4 DUP4 PUSH2 0x9BD JUMP JUMPDEST SWAP1 POP SWAP3 SWAP2 POP POP JUMP JUMPDEST PUSH1 0x0 PUSH2 0x452 DUP3 PUSH2 0xAEC JUMP JUMPDEST SWAP1 POP SWAP2 SWAP1 POP JUMP JUMPDEST PUSH1 0x0 DUP1 PUSH2 0x466 DUP5 DUP5 PUSH2 0xBA5 JUMP JUMPDEST SWAP2 POP SWAP2 POP SWAP3 POP SWAP3 SWAP1 POP JUMP JUMPDEST PUSH1 0x0 PUSH2 0x47D DUP4 DUP4 PUSH2 0xBC9 JUMP JUMPDEST SWAP1 POP SWAP3 SWAP2 POP POP JUMP JUMPDEST PUSH2 0x48D PUSH2 0x13F2 JUMP JUMPDEST PUSH2 0x495 PUSH2 0x13F2 JUMP JUMPDEST PUSH2 0x49F DUP5 DUP5 PUSH2 0xC26 JUMP JUMPDEST SWAP2 POP SWAP2 POP SWAP3 POP SWAP3 SWAP1 POP JUMP JUMPDEST PUSH2 0x4B2 PUSH2 0x13F2 JUMP JUMPDEST PUSH2 0x4BC DUP4 DUP4 PUSH2 0xDCA JUMP JUMPDEST SWAP1 POP SWAP3 SWAP2 POP POP JUMP JUMPDEST PUSH2 0x4CC PUSH2 0x13F2 JUMP JUMPDEST PUSH2 0x4D5 DUP3 PUSH2 0xEFC JUMP JUMPDEST SWAP1 POP SWAP2 SWAP1 POP JUMP JUMPDEST PUSH1 0x0 DUP1 PUSH2 0x4E9 DUP5 DUP5 PUSH2 0xFEC JUMP JUMPDEST SWAP2 POP SWAP2 POP SWAP3 POP SWAP3 SWAP1 POP JUMP JUMPDEST PUSH2 0x4FC PUSH2 0x13F2 JUMP JUMPDEST PUSH2 0x506 DUP4 DUP4 PUSH2 0x1034 JUMP JUMPDEST SWAP1 POP SWAP3 SWAP2 POP POP JUMP JUMPDEST PUSH1 0x0 PUSH2 0x51A DUP4 DUP4 PUSH2 0x120D JUMP JUMPDEST SWAP1 POP SWAP3 SWAP2 POP POP JUMP JUMPDEST PUSH2 0x52A PUSH2 0x13F2 JUMP JUMPDEST PUSH2 0x534 DUP4 DUP4 PUSH2 0x1237 JUMP JUMPDEST SWAP1 POP SWAP3 SWAP2 POP POP JUMP JUMPDEST PUSH2 0x544 PUSH2 0x13F2 JUMP JUMPDEST DUP2 PUSH1 0x0 DUP2 PUSH1 0x20 ADD MLOAD PUSH16 0xFFFFFFFFFFFFFFFFFFFFFFFFFFFFFFFF AND EQ ISZERO PUSH2 0x59F JUMPI PUSH1 0x40 MLOAD PUSH32 0x8C379A000000000000000000000000000000000000000000000000000000000 DUP2 MSTORE PUSH1 0x4 ADD PUSH2 0x596 SWAP1 PUSH2 0x1683 JUMP JUMPDEST PUSH1 0x40 MLOAD DUP1 SWAP2 SUB SWAP1 REVERT JUMPDEST PUSH1 0x0 DUP4 PUSH1 0x0 ADD MLOAD PUSH16 0xFFFFFFFFFFFFFFFFFFFFFFFFFFFFFFFF AND EQ ISZERO PUSH2 0x5F9 JUMPI PUSH1 0x40 MLOAD PUSH32 0x8C379A000000000000000000000000000000000000000000000000000000000 DUP2 MSTORE PUSH1 0x4 ADD PUSH2 0x5F0 SWAP1 PUSH2 0x1683 JUMP JUMPDEST PUSH1 0x40 MLOAD DUP1 SWAP2 SUB SWAP1 REVERT JUMPDEST PUSH1 0x40 MLOAD DUP1 PUSH1 0x40 ADD PUSH1 0x40 MSTORE DUP1 DUP5 PUSH1 0x20 ADD MLOAD PUSH16 0xFFFFFFFFFFFFFFFFFFFFFFFFFFFFFFFF AND DUP2 MSTORE PUSH1 0x20 ADD DUP5 PUSH1 0x0 ADD MLOAD PUSH16 0xFFFFFFFFFFFFFFFFFFFFFFFFFFFFFFFF AND DUP2 MSTORE POP SWAP2 POP POP SWAP2 SWAP1 POP JUMP JUMPDEST PUSH1 0x0 DUP3 PUSH1 0x0 DUP2 PUSH1 0x20 ADD MLOAD PUSH16 0xFFFFFFFFFFFFFFFFFFFFFFFFFFFFFFFF AND EQ ISZERO PUSH2 0x69F JUMPI PUSH1 0x40 MLOAD PUSH32 0x8C379A000000000000000000000000000000000000000000000000000000000 DUP2 MSTORE PUSH1 0x4 ADD PUSH2 0x696 SWAP1 PUSH2 0x1683 JUMP JUMPDEST PUSH1 0x40 MLOAD DUP1 SWAP2 SUB SWAP1 REVERT JUMPDEST DUP3 PUSH1 0x0 DUP2 PUSH1 0x20 ADD MLOAD PUSH16 0xFFFFFFFFFFFFFFFFFFFFFFFFFFFFFFFF AND EQ ISZERO PUSH2 0x6FA JUMPI PUSH1 0x40 MLOAD PUSH32 0x8C379A000000000000000000000000000000000000000000000000000000000 DUP2 MSTORE PUSH1 0x4 ADD PUSH2 0x6F1 SWAP1 PUSH2 0x1683 JUMP JUMPDEST PUSH1 0x40 MLOAD DUP1 SWAP2 SUB SWAP1 REVERT JUMPDEST PUSH2 0x704 DUP6 DUP6 PUSH2 0xC26 JUMP JUMPDEST DUP1 SWAP6 POP DUP2 SWAP7 POP POP POP DUP4 PUSH1 0x0 ADD MLOAD PUSH16 0xFFFFFFFFFFFFFFFFFFFFFFFFFFFFFFFF AND DUP6 PUSH1 0x0 ADD MLOAD PUSH16 0xFFFFFFFFFFFFFFFFFFFFFFFFFFFFFFFF AND LT PUSH2 0x748 JUMPI PUSH1 0x1 SWAP3 POP PUSH2 0x74D JUMP JUMPDEST PUSH1 0x0 SWAP3 POP JUMPDEST POP POP SWAP3 SWAP2 POP POP JUMP JUMPDEST PUSH2 0x75D PUSH2 0x13F2 JUMP JUMPDEST DUP3 PUSH1 0x0 DUP2 PUSH1 0x20 ADD MLOAD PUSH16 0xFFFFFFFFFFFFFFFFFFFFFFFFFFFFFFFF AND EQ ISZERO PUSH2 0x7B8 JUMPI PUSH1 0x40 MLOAD PUSH32 0x8C379A000000000000000000000000000000000000000000000000000000000 DUP2 MSTORE PUSH1 0x4 ADD PUSH2 0x7AF SWAP1 PUSH2 0x1683 JUMP JUMPDEST PUSH1 0x40 MLOAD DUP1 SWAP2 SUB SWAP1 REVERT JUMPDEST DUP3 PUSH1 0x0 DUP2 PUSH1 0x20 ADD MLOAD PUSH16 0xFFFFFFFFFFFFFFFFFFFFFFFFFFFFFFFF AND EQ ISZERO PUSH2 0x813 JUMPI PUSH1 0x40 MLOAD PUSH32 0x8C379A000000000000000000000000000000000000000000000000000000000 DUP2 MSTORE PUSH1 0x4 ADD PUSH2 0x80A SWAP1 PUSH2 0x1683 JUMP JUMPDEST PUSH1 0x40 MLOAD DUP1 SWAP2 SUB SWAP1 REVERT JUMPDEST PUSH1 0x0 DUP5 PUSH1 0x0 ADD MLOAD PUSH16 0xFFFFFFFFFFFFFFFFFFFFFFFFFFFFFFFF AND EQ ISZERO PUSH2 0x86D JUMPI PUSH1 0x40 MLOAD PUSH32 0x8C379A000000000000000000000000000000000000000000000000000000000 DUP2 MSTORE PUSH1 0x4 ADD PUSH2 0x864 SWAP1 PUSH2 0x1683 JUMP JUMPDEST PUSH1 0x40 MLOAD DUP1 SWAP2 SUB SWAP1 REVERT JUMPDEST PUSH2 0x87F DUP6 PUSH2 0x87A DUP7 PUSH2 0x53C JUMP JUMPDEST PUSH2 0x1034 JUMP JUMPDEST SWAP3 POP POP POP SWAP3 SWAP2 POP POP JUMP JUMPDEST PUSH2 0x891 PUSH2 0x13F2 JUMP JUMPDEST DUP3 PUSH1 0x0 DUP2 PUSH1 0x20 ADD MLOAD PUSH16 0xFFFFFFFFFFFFFFFFFFFFFFFFFFFFFFFF AND EQ ISZERO PUSH2 0x8EC JUMPI PUSH1 0x40 MLOAD PUSH32 0x8C379A000000000000000000000000000000000000000000000000000000000 DUP2 MSTORE PUSH1 0x4 ADD PUSH2 0x8E3 SWAP1 PUSH2 0x1683 JUMP JUMPDEST PUSH1 0x40 MLOAD DUP1 SWAP2 SUB SWAP1 REVERT JUMPDEST DUP3 PUSH1 0x0 DUP2 PUSH1 0x20 ADD MLOAD PUSH16 0xFFFFFFFFFFFFFFFFFFFFFFFFFFFFFFFF AND EQ ISZERO PUSH2 0x947 JUMPI PUSH1 0x40 MLOAD PUSH32 0x8C379A000000000000000000000000000000000000000000000000000000000 DUP2 MSTORE PUSH1 0x4 ADD PUSH2 0x93E SWAP1 PUSH2 0x1683 JUMP JUMPDEST PUSH1 0x40 MLOAD DUP1 SWAP2 SUB SWAP1 REVERT JUMPDEST PUSH1 0x0 DUP5 PUSH1 0x0 ADD MLOAD PUSH16 0xFFFFFFFFFFFFFFFFFFFFFFFFFFFFFFFF AND EQ ISZERO PUSH2 0x9A1 JUMPI PUSH1 0x40 MLOAD PUSH32 0x8C379A000000000000000000000000000000000000000000000000000000000 DUP2 MSTORE PUSH1 0x4 ADD PUSH2 0x998 SWAP1 PUSH2 0x1683 JUMP JUMPDEST PUSH1 0x40 MLOAD DUP1 SWAP2 SUB SWAP1 REVERT JUMPDEST PUSH2 0x9B3 DUP6 PUSH2 0x9AE DUP7 PUSH2 0x53C JUMP JUMPDEST PUSH2 0x9BD JUMP JUMPDEST SWAP3 POP POP POP SWAP3 SWAP2 POP POP JUMP JUMPDEST PUSH2 0x9C5 PUSH2 0x13F2 JUMP JUMPDEST DUP3 PUSH1 0x0 DUP2 PUSH1 0x20 ADD MLOAD PUSH16 0xFFFFFFFFFFFFFFFFFFFFFFFFFFFFFFFF AND EQ ISZERO PUSH2 0xA20 JUMPI PUSH1 0x40 MLOAD PUSH32 0x8C379A000000000000000000000000000000000000000000000000000000000 DUP2 MSTORE PUSH1 0x4 ADD PUSH2 0xA17 SWAP1 PUSH2 0x1683 JUMP JUMPDEST PUSH1 0x40 MLOAD DUP1 SWAP2 SUB SWAP1 REVERT JUMPDEST DUP3 PUSH1 0x0 DUP2 PUSH1 0x20 ADD MLOAD PUSH16 0xFFFFFFFFFFFFFFFFFFFFFFFFFFFFFFFF AND EQ ISZERO PUSH2 0xA7B JUMPI PUSH1 0x40 MLOAD PUSH32 0x8C379A000000000000000000000000000000000000000000000000000000000 DUP2 MSTORE PUSH1 0x4 ADD PUSH2 0xA72 SWAP1 PUSH2 0x1683 JUMP JUMPDEST PUSH1 0x40 MLOAD DUP1 SWAP2 SUB SWAP1 REVERT JUMPDEST PUSH2 0xAE2 PUSH1 0x40 MLOAD DUP1 PUSH1 0x40 ADD PUSH1 0x40 MSTORE DUP1 DUP7 PUSH1 0x0 ADD MLOAD DUP9 PUSH1 0x0 ADD MLOAD PUSH2 0xA9D SWAP2 SWAP1 PUSH2 0x184D JUMP JUMPDEST PUSH16 0xFFFFFFFFFFFFFFFFFFFFFFFFFFFFFFFF AND DUP2 MSTORE PUSH1 0x20 ADD DUP7 PUSH1 0x20 ADD MLOAD DUP9 PUSH1 0x20 ADD MLOAD PUSH2 0xAC8 SWAP2 SWAP1 PUSH2 0x184D JUMP JUMPDEST PUSH16 0xFFFFFFFFFFFFFFFFFFFFFFFFFFFFFFFF AND DUP2 MSTORE POP PUSH2 0xEFC JUMP JUMPDEST SWAP3 POP POP POP SWAP3 SWAP2 POP POP JUMP JUMPDEST PUSH1 0x0 DUP2 PUSH1 0x0 DUP2 PUSH1 0x20 ADD MLOAD PUSH16 0xFFFFFFFFFFFFFFFFFFFFFFFFFFFFFFFF AND EQ ISZERO PUSH2 0xB49 JUMPI PUSH1 0x40 MLOAD PUSH32 0x8C379A000000000000000000000000000000000000000000000000000000000 DUP2 MSTORE PUSH1 0x4 ADD PUSH2 0xB40 SWAP1 PUSH2 0x1683 JUMP JUMPDEST PUSH1 0x40 MLOAD DUP1 SWAP2 SUB SWAP1 REVERT JUMPDEST DUP3 PUSH1 0x20 ADD MLOAD PUSH16 0xFFFFFFFFFFFFFFFFFFFFFFFFFFFFFFFF AND PUSH17 0x100000000000000000000000000000000 DUP5 PUSH1 0x0 ADD MLOAD PUSH16 0xFFFFFFFFFFFFFFFFFFFFFFFFFFFFFFFF AND PUSH2 0xB93 SWAP2 SWAP1 PUSH2 0x1897 JUMP JUMPDEST PUSH2 0xB9D SWAP2 SWAP1 PUSH2 0x181C JUMP JUMPDEST SWAP2 POP POP SWAP2 SWAP1 POP JUMP JUMPDEST PUSH1 0x0 DUP1 DUP3 DUP5 GT ISZERO PUSH2 0xBBB JUMPI DUP4 DUP4 SWAP2 POP SWAP2 POP PUSH2 0xBC2 JUMP JUMPDEST DUP3 DUP5 SWAP2 POP SWAP2 POP JUMPDEST SWAP3 POP SWAP3 SWAP1 POP JUMP JUMPDEST PUSH1 0x0 PUSH2 0xBD5 DUP4 DUP4 PUSH2 0xFEC JUMP JUMPDEST DUP1 SWAP4 POP DUP2 SWAP5 POP POP POP JUMPDEST PUSH1 0x0 DUP3 PUSH16 0xFFFFFFFFFFFFFFFFFFFFFFFFFFFFFFFF AND EQ PUSH2 0xC1D JUMPI DUP2 DUP4 PUSH2 0xC04 SWAP2 SWAP1 PUSH2 0x1988 JUMP JUMPDEST SWAP3 POP PUSH2 0xC10 DUP4 DUP4 PUSH2 0xFEC JUMP JUMPDEST DUP1 SWAP4 POP DUP2 SWAP5 POP POP POP PUSH2 0xBDE JUMP JUMPDEST DUP3 SWAP1 POP SWAP3 SWAP2 POP POP JUMP JUMPDEST PUSH2 0xC2E PUSH2 0x13F2 JUMP JUMPDEST PUSH2 0xC36 PUSH2 0x13F2 JUMP JUMPDEST DUP4 PUSH1 0x0 DUP2 PUSH1 0x20 ADD MLOAD PUSH16 0xFFFFFFFFFFFFFFFFFFFFFFFFFFFFFFFF AND EQ ISZERO PUSH2 0xC91 JUMPI PUSH1 0x40 MLOAD PUSH32 0x8C379A000000000000000000000000000000000000000000000000000000000 DUP2 MSTORE PUSH1 0x4 ADD PUSH2 0xC88 SWAP1 PUSH2 0x1683 JUMP JUMPDEST PUSH1 0x40 MLOAD DUP1 SWAP2 SUB SWAP1 REVERT JUMPDEST DUP4 PUSH1 0x0 DUP2 PUSH1 0x20 ADD MLOAD PUSH16 0xFFFFFFFFFFFFFFFFFFFFFFFFFFFFFFFF AND EQ ISZERO PUSH2 0xCEC JUMPI PUSH1 0x40 MLOAD PUSH32 0x8C379A000000000000000000000000000000000000000000000000000000000 DUP2 MSTORE PUSH1 0x4 ADD PUSH2 0xCE3 SWAP1 PUSH2 0x1683 JUMP JUMPDEST PUSH1 0x40 MLOAD DUP1 SWAP2 SUB SWAP1 REVERT JUMPDEST PUSH1 0x0 PUSH2 0xD00 DUP8 PUSH1 0x20 ADD MLOAD DUP8 PUSH1 0x20 ADD MLOAD PUSH2 0x120D JUMP JUMPDEST SWAP1 POP PUSH1 0x0 DUP8 PUSH1 0x0 ADD MLOAD DUP9 PUSH1 0x20 ADD MLOAD DUP4 PUSH2 0xD19 SWAP2 SWAP1 PUSH2 0x17EB JUMP JUMPDEST PUSH2 0xD23 SWAP2 SWAP1 PUSH2 0x184D JUMP JUMPDEST SWAP1 POP PUSH1 0x0 DUP8 PUSH1 0x0 ADD MLOAD DUP9 PUSH1 0x20 ADD MLOAD DUP5 PUSH2 0xD3C SWAP2 SWAP1 PUSH2 0x17EB JUMP JUMPDEST PUSH2 0xD46 SWAP2 SWAP1 PUSH2 0x184D JUMP JUMPDEST SWAP1 POP PUSH1 0x40 MLOAD DUP1 PUSH1 0x40 ADD PUSH1 0x40 MSTORE DUP1 DUP4 PUSH16 0xFFFFFFFFFFFFFFFFFFFFFFFFFFFFFFFF AND DUP2 MSTORE PUSH1 0x20 ADD DUP5 PUSH16 0xFFFFFFFFFFFFFFFFFFFFFFFFFFFFFFFF AND DUP2 MSTORE POP PUSH1 0x40 MLOAD DUP1 PUSH1 0x40 ADD PUSH1 0x40 MSTORE DUP1 DUP4 PUSH16 0xFFFFFFFFFFFFFFFFFFFFFFFFFFFFFFFF AND DUP2 MSTORE PUSH1 0x20 ADD DUP6 PUSH16 0xFFFFFFFFFFFFFFFFFFFFFFFFFFFFFFFF AND DUP2 MSTORE POP SWAP7 POP SWAP7 POP POP POP POP POP POP SWAP3 POP SWAP3 SWAP1 POP JUMP JUMPDEST PUSH2 0xDD2 PUSH2 0x13F2 JUMP JUMPDEST DUP3 PUSH1 0x0 DUP2 PUSH1 0x20 ADD MLOAD PUSH16 0xFFFFFFFFFFFFFFFFFFFFFFFFFFFFFFFF AND EQ ISZERO PUSH2 0xE2D JUMPI PUSH1 0x40 MLOAD PUSH32 0x8C379A000000000000000000000000000000000000000000000000000000000 DUP2 MSTORE PUSH1 0x4 ADD PUSH2 0xE24 SWAP1 PUSH2 0x1683 JUMP JUMPDEST PUSH1 0x40 MLOAD DUP1 SWAP2 SUB SWAP1 REVERT JUMPDEST DUP3 PUSH1 0x0 DUP2 PUSH1 0x20 ADD MLOAD PUSH16 0xFFFFFFFFFFFFFFFFFFFFFFFFFFFFFFFF AND EQ ISZERO PUSH2 0xE88 JUMPI PUSH1 0x40 MLOAD PUSH32 0x8C379A000000000000000000000000000000000000000000000000000000000 DUP2 MSTORE PUSH1 0x4 ADD PUSH2 0xE7F SWAP1 PUSH2 0x1683 JUMP JUMPDEST PUSH1 0x40 MLOAD DUP1 SWAP2 SUB SWAP1 REVERT JUMPDEST PUSH2 0xE92 DUP6 DUP6 PUSH2 0xC26 JUMP JUMPDEST DUP1 SWAP6 POP DUP2 SWAP7 POP POP POP PUSH2 0xEF2 PUSH1 0x40 MLOAD DUP1 PUSH1 0x40 ADD PUSH1 0x40 MSTORE DUP1 DUP7 PUSH1 0x0 ADD MLOAD DUP9 PUSH1 0x0 ADD MLOAD PUSH2 0xEBC SWAP2 SWAP1 PUSH2 0x17A5 JUMP JUMPDEST PUSH16 0xFFFFFFFFFFFFFFFFFFFFFFFFFFFFFFFF AND DUP2 MSTORE PUSH1 0x20 ADD DUP8 PUSH1 0x20 ADD MLOAD PUSH16 0xFFFFFFFFFFFFFFFFFFFFFFFFFFFFFFFF AND DUP2 MSTORE POP PUSH2 0xEFC JUMP JUMPDEST SWAP3 POP POP POP SWAP3 SWAP2 POP POP JUMP JUMPDEST PUSH2 0xF04 PUSH2 0x13F2 JUMP JUMPDEST DUP2 PUSH1 0x0 DUP2 PUSH1 0x20 ADD MLOAD PUSH16 0xFFFFFFFFFFFFFFFFFFFFFFFFFFFFFFFF AND EQ ISZERO PUSH2 0xF5F JUMPI PUSH1 0x40 MLOAD PUSH32 0x8C379A000000000000000000000000000000000000000000000000000000000 DUP2 MSTORE PUSH1 0x4 ADD PUSH2 0xF56 SWAP1 PUSH2 0x1683 JUMP JUMPDEST PUSH1 0x40 MLOAD DUP1 SWAP2 SUB SWAP1 REVERT JUMPDEST PUSH2 0xF68 DUP4 PUSH2 0x13B2 JUMP JUMPDEST ISZERO PUSH2 0xFE2 JUMPI PUSH1 0x0 PUSH2 0xF81 DUP5 PUSH1 0x0 ADD MLOAD DUP6 PUSH1 0x20 ADD MLOAD PUSH2 0xBC9 JUMP JUMPDEST SWAP1 POP PUSH1 0x40 MLOAD DUP1 PUSH1 0x40 ADD PUSH1 0x40 MSTORE DUP1 DUP3 DUP7 PUSH1 0x0 ADD MLOAD PUSH2 0xF9E SWAP2 SWAP1 PUSH2 0x17EB JUMP JUMPDEST PUSH16 0xFFFFFFFFFFFFFFFFFFFFFFFFFFFFFFFF AND DUP2 MSTORE PUSH1 0x20 ADD DUP3 DUP7 PUSH1 0x20 ADD MLOAD PUSH2 0xFC5 SWAP2 SWAP1 PUSH2 0x17EB JUMP JUMPDEST PUSH16 0xFFFFFFFFFFFFFFFFFFFFFFFFFFFFFFFF AND DUP2 MSTORE POP SWAP3 POP POP PUSH2 0xFE6 JUMP JUMPDEST DUP3 SWAP2 POP JUMPDEST POP SWAP2 SWAP1 POP JUMP JUMPDEST PUSH1 0x0 DUP1 DUP3 PUSH16 0xFFFFFFFFFFFFFFFFFFFFFFFFFFFFFFFF AND DUP5 PUSH16 0xFFFFFFFFFFFFFFFFFFFFFFFFFFFFFFFF AND GT ISZERO PUSH2 0x1026 JUMPI DUP4 DUP4 SWAP2 POP SWAP2 POP PUSH2 0x102D JUMP JUMPDEST DUP3 DUP5 SWAP2 POP SWAP2 POP JUMPDEST SWAP3 POP SWAP3 SWAP1 POP JUMP JUMPDEST PUSH2 0x103C PUSH2 0x13F2 JUMP JUMPDEST DUP3 PUSH1 0x0 DUP2 PUSH1 0x20 ADD MLOAD PUSH16 0xFFFFFFFFFFFFFFFFFFFFFFFFFFFFFFFF AND EQ ISZERO PUSH2 0x1097 JUMPI PUSH1 0x40 MLOAD PUSH32 0x8C379A000000000000000000000000000000000000000000000000000000000 DUP2 MSTORE PUSH1 0x4 ADD PUSH2 0x108E SWAP1 PUSH2 0x1683 JUMP JUMPDEST PUSH1 0x40 MLOAD DUP1 SWAP2 SUB SWAP1 REVERT JUMPDEST DUP3 PUSH1 0x0 DUP2 PUSH1 0x20 ADD MLOAD PUSH16 0xFFFFFFFFFFFFFFFFFFFFFFFFFFFFFFFF AND EQ ISZERO PUSH2 0x10F2 JUMPI PUSH1 0x40 MLOAD PUSH32 0x8C379A000000000000000000000000000000000000000000000000000000000 DUP2 MSTORE PUSH1 0x4 ADD PUSH2 0x10E9 SWAP1 PUSH2 0x1683 JUMP JUMPDEST PUSH1 0x40 MLOAD DUP1 SWAP2 SUB SWAP1 REVERT JUMPDEST PUSH2 0x10FB DUP6 PUSH2 0xEFC JUMP JUMPDEST SWAP5 POP PUSH2 0x1106 DUP5 PUSH2 0xEFC JUMP JUMPDEST SWAP4 POP PUSH1 0x0 PUSH2 0x1153 PUSH1 0x40 MLOAD DUP1 PUSH1 0x40 ADD PUSH1 0x40 MSTORE DUP1 DUP9 PUSH1 0x0 ADD MLOAD PUSH16 0xFFFFFFFFFFFFFFFFFFFFFFFFFFFFFFFF AND DUP2 MSTORE PUSH1 0x20 ADD DUP8 PUSH1 0x20 ADD MLOAD PUSH16 0xFFFFFFFFFFFFFFFFFFFFFFFFFFFFFFFF AND DUP2 MSTORE POP PUSH2 0xEFC JUMP JUMPDEST SWAP1 POP PUSH1 0x0 PUSH2 0x11A0 PUSH1 0x40 MLOAD DUP1 PUSH1 0x40 ADD PUSH1 0x40 MSTORE DUP1 DUP9 PUSH1 0x0 ADD MLOAD PUSH16 0xFFFFFFFFFFFFFFFFFFFFFFFFFFFFFFFF AND DUP2 MSTORE PUSH1 0x20 ADD DUP10 PUSH1 0x20 ADD MLOAD PUSH16 0xFFFFFFFFFFFFFFFFFFFFFFFFFFFFFFFF AND DUP2 MSTORE POP PUSH2 0xEFC JUMP JUMPDEST SWAP1 POP PUSH1 0x40 MLOAD DUP1 PUSH1 0x40 ADD PUSH1 0x40 MSTORE DUP1 DUP3 PUSH1 0x0 ADD MLOAD DUP5 PUSH1 0x0 ADD MLOAD PUSH2 0x11C1 SWAP2 SWAP1 PUSH2 0x184D JUMP JUMPDEST PUSH16 0xFFFFFFFFFFFFFFFFFFFFFFFFFFFFFFFF AND DUP2 MSTORE PUSH1 0x20 ADD DUP3 PUSH1 0x20 ADD MLOAD DUP5 PUSH1 0x20 ADD MLOAD PUSH2 0x11EC SWAP2 SWAP1 PUSH2 0x184D JUMP JUMPDEST PUSH16 0xFFFFFFFFFFFFFFFFFFFFFFFFFFFFFFFF AND DUP2 MSTORE POP SWAP5 POP POP POP POP POP SWAP3 SWAP2 POP POP JUMP JUMPDEST PUSH1 0x0 DUP2 PUSH2 0x121A DUP5 DUP5 PUSH2 0xBC9 JUMP JUMPDEST DUP5 PUSH2 0x1225 SWAP2 SWAP1 PUSH2 0x17EB JUMP JUMPDEST PUSH2 0x122F SWAP2 SWAP1 PUSH2 0x184D JUMP JUMPDEST SWAP1 POP SWAP3 SWAP2 POP POP JUMP JUMPDEST PUSH2 0x123F PUSH2 0x13F2 JUMP JUMPDEST DUP3 PUSH1 0x0 DUP2 PUSH1 0x20 ADD MLOAD PUSH16 0xFFFFFFFFFFFFFFFFFFFFFFFFFFFFFFFF AND EQ ISZERO PUSH2 0x129A JUMPI PUSH1 0x40 MLOAD PUSH32 0x8C379A000000000000000000000000000000000000000000000000000000000 DUP2 MSTORE PUSH1 0x4 ADD PUSH2 0x1291 SWAP1 PUSH2 0x1683 JUMP JUMPDEST PUSH1 0x40 MLOAD DUP1 SWAP2 SUB SWAP1 REVERT JUMPDEST DUP3 PUSH1 0x0 DUP2 PUSH1 0x20 ADD MLOAD PUSH16 0xFFFFFFFFFFFFFFFFFFFFFFFFFFFFFFFF AND EQ ISZERO PUSH2 0x12F5 JUMPI PUSH1 0x40 MLOAD PUSH32 0x8C379A000000000000000000000000000000000000000000000000000000000 DUP2 MSTORE PUSH1 0x4 ADD PUSH2 0x12EC SWAP1 PUSH2 0x1683 JUMP JUMPDEST PUSH1 0x40 MLOAD DUP1 SWAP2 SUB SWAP1 REVERT JUMPDEST PUSH2 0x12FF DUP6 DUP6 PUSH2 0x642 JUMP JUMPDEST PUSH2 0x133E JUMPI PUSH1 0x40 MLOAD PUSH32 0x8C379A000000000000000000000000000000000000000000000000000000000 DUP2 MSTORE PUSH1 0x4 ADD PUSH2 0x1335 SWAP1 PUSH2 0x1663 JUMP JUMPDEST PUSH1 0x40 MLOAD DUP1 SWAP2 SUB SWAP1 REVERT JUMPDEST PUSH2 0x1348 DUP6 DUP6 PUSH2 0xC26 JUMP JUMPDEST DUP1 SWAP6 POP DUP2 SWAP7 POP POP POP PUSH2 0x13A8 PUSH1 0x40 MLOAD DUP1 PUSH1 0x40 ADD PUSH1 0x40 MSTORE DUP1 DUP7 PUSH1 0x0 ADD MLOAD DUP9 PUSH1 0x0 ADD MLOAD PUSH2 0x1372 SWAP2 SWAP1 PUSH2 0x18F1 JUMP JUMPDEST PUSH16 0xFFFFFFFFFFFFFFFFFFFFFFFFFFFFFFFF AND DUP2 MSTORE PUSH1 0x20 ADD DUP8 PUSH1 0x20 ADD MLOAD PUSH16 0xFFFFFFFFFFFFFFFFFFFFFFFFFFFFFFFF AND DUP2 MSTORE POP PUSH2 0xEFC JUMP JUMPDEST SWAP3 POP POP POP SWAP3 SWAP2 POP POP JUMP JUMPDEST PUSH1 0x0 PUSH1 0x1 PUSH2 0x13C8 DUP4 PUSH1 0x0 ADD MLOAD DUP5 PUSH1 0x20 ADD MLOAD PUSH2 0xBC9 JUMP JUMPDEST PUSH16 0xFFFFFFFFFFFFFFFFFFFFFFFFFFFFFFFF AND EQ PUSH2 0x13E8 JUMPI PUSH1 0x1 SWAP1 POP PUSH2 0x13ED JUMP JUMPDEST PUSH1 0x0 SWAP1 POP JUMPDEST SWAP2 SWAP1 POP JUMP JUMPDEST PUSH1 0x40 MLOAD DUP1 PUSH1 0x40 ADD PUSH1 0x40 MSTORE DUP1 PUSH1 0x0 PUSH16 0xFFFFFFFFFFFFFFFFFFFFFFFFFFFFFFFF AND DUP2 MSTORE PUSH1 0x20 ADD PUSH1 0x0 PUSH16 0xFFFFFFFFFFFFFFFFFFFFFFFFFFFFFFFF AND DUP2 MSTORE POP SWAP1 JUMP JUMPDEST PUSH1 0x0 PUSH1 0x40 DUP3 DUP5 SUB SLT ISZERO PUSH2 0x1446 JUMPI PUSH2 0x1445 PUSH2 0x1A46 JUMP JUMPDEST JUMPDEST PUSH2 0x1450 PUSH1 0x40 PUSH2 0x176F JUMP JUMPDEST SWAP1 POP PUSH1 0x0 PUSH2 0x1460 DUP5 DUP3 DUP6 ADD PUSH2 0x1480 JUMP JUMPDEST PUSH1 0x0 DUP4 ADD MSTORE POP PUSH1 0x20 PUSH2 0x1474 DUP5 DUP3 DUP6 ADD PUSH2 0x1480 JUMP JUMPDEST PUSH1 0x20 DUP4 ADD MSTORE POP SWAP3 SWAP2 POP POP JUMP JUMPDEST PUSH1 0x0 DUP2 CALLDATALOAD SWAP1 POP PUSH2 0x148F DUP2 PUSH2 0x1AB3 JUMP JUMPDEST SWAP3 SWAP2 POP POP JUMP JUMPDEST PUSH1 0x0 DUP2 CALLDATALOAD SWAP1 POP PUSH2 0x14A4 DUP2 PUSH2 0x1ACA JUMP JUMPDEST SWAP3 SWAP2 POP POP JUMP JUMPDEST PUSH1 0x0 PUSH1 0x40 DUP3 DUP5 SUB SLT ISZERO PUSH2 0x14C0 JUMPI PUSH2 0x14BF PUSH2 0x1A4B JUMP JUMPDEST JUMPDEST PUSH1 0x0 PUSH2 0x14CE DUP5 DUP3 DUP6 ADD PUSH2 0x1430 JUMP JUMPDEST SWAP2 POP POP SWAP3 SWAP2 POP POP JUMP JUMPDEST PUSH1 0x0 DUP1 PUSH1 0x80 DUP4 DUP6 SUB SLT ISZERO PUSH2 0x14EE JUMPI PUSH2 0x14ED PUSH2 0x1A4B JUMP JUMPDEST JUMPDEST PUSH1 0x0 PUSH2 0x14FC DUP6 DUP3 DUP7 ADD PUSH2 0x1430 JUMP JUMPDEST SWAP3 POP POP PUSH1 0x40 PUSH2 0x150D DUP6 DUP3 DUP7 ADD PUSH2 0x1430 JUMP JUMPDEST SWAP2 POP POP SWAP3 POP SWAP3 SWAP1 POP JUMP JUMPDEST PUSH1 0x0 DUP1 PUSH1 0x40 DUP4 DUP6 SUB SLT ISZERO PUSH2 0x152E JUMPI PUSH2 0x152D PUSH2 0x1A4B JUMP JUMPDEST JUMPDEST PUSH1 0x0 PUSH2 0x153C DUP6 DUP3 DUP7 ADD PUSH2 0x1480 JUMP JUMPDEST SWAP3 POP POP PUSH1 0x20 PUSH2 0x154D DUP6 DUP3 DUP7 ADD PUSH2 0x1480 JUMP JUMPDEST SWAP2 POP POP SWAP3 POP SWAP3 SWAP1 POP JUMP JUMPDEST PUSH1 0x0 DUP1 PUSH1 0x40 DUP4 DUP6 SUB SLT ISZERO PUSH2 0x156E JUMPI PUSH2 0x156D PUSH2 0x1A4B JUMP JUMPDEST JUMPDEST PUSH1 0x0 PUSH2 0x157C DUP6 DUP3 DUP7 ADD PUSH2 0x1495 JUMP JUMPDEST SWAP3 POP POP PUSH1 0x20 PUSH2 0x158D DUP6 DUP3 DUP7 ADD PUSH2 0x1495 JUMP JUMPDEST SWAP2 POP POP SWAP3 POP SWAP3 SWAP1 POP JUMP JUMPDEST PUSH2 0x15A0 DUP2 PUSH2 0x1925 JUMP JUMPDEST DUP3 MSTORE POP POP JUMP JUMPDEST PUSH1 0x0 PUSH2 0x15B3 PUSH1 0x10 DUP4 PUSH2 0x1794 JUMP JUMPDEST SWAP2 POP PUSH2 0x15BE DUP3 PUSH2 0x1A61 JUMP JUMPDEST PUSH1 0x20 DUP3 ADD SWAP1 POP SWAP2 SWAP1 POP JUMP JUMPDEST PUSH1 0x0 PUSH2 0x15D6 PUSH1 0x17 DUP4 PUSH2 0x1794 JUMP JUMPDEST SWAP2 POP PUSH2 0x15E1 DUP3 PUSH2 0x1A8A JUMP JUMPDEST PUSH1 0x20 DUP3 ADD SWAP1 POP SWAP2 SWAP1 POP JUMP JUMPDEST PUSH1 0x40 DUP3 ADD PUSH1 0x0 DUP3 ADD MLOAD PUSH2 0x1602 PUSH1 0x0 DUP6 ADD DUP3 PUSH2 0x161B JUMP JUMPDEST POP PUSH1 0x20 DUP3 ADD MLOAD PUSH2 0x1615 PUSH1 0x20 DUP6 ADD DUP3 PUSH2 0x161B JUMP JUMPDEST POP POP POP POP JUMP JUMPDEST PUSH2 0x1624 DUP2 PUSH2 0x1931 JUMP JUMPDEST DUP3 MSTORE POP POP JUMP JUMPDEST PUSH2 0x1633 DUP2 PUSH2 0x1931 JUMP JUMPDEST DUP3 MSTORE POP POP JUMP JUMPDEST PUSH2 0x1642 DUP2 PUSH2 0x194D JUMP JUMPDEST DUP3 MSTORE POP POP JUMP JUMPDEST PUSH1 0x0 PUSH1 0x20 DUP3 ADD SWAP1 POP PUSH2 0x165D PUSH1 0x0 DUP4 ADD DUP5 PUSH2 0x1597 JUMP JUMPDEST SWAP3 SWAP2 POP POP JUMP JUMPDEST PUSH1 0x0 PUSH1 0x20 DUP3 ADD SWAP1 POP DUP2 DUP2 SUB PUSH1 0x0 DUP4 ADD MSTORE PUSH2 0x167C DUP2 PUSH2 0x15A6 JUMP JUMPDEST SWAP1 POP SWAP2 SWAP1 POP JUMP JUMPDEST PUSH1 0x0 PUSH1 0x20 DUP3 ADD SWAP1 POP DUP2 DUP2 SUB PUSH1 0x0 DUP4 ADD MSTORE PUSH2 0x169C DUP2 PUSH2 0x15C9 JUMP JUMPDEST SWAP1 POP SWAP2 SWAP1 POP JUMP JUMPDEST PUSH1 0x0 PUSH1 0x40 DUP3 ADD SWAP1 POP PUSH2 0x16B8 PUSH1 0x0 DUP4 ADD DUP5 PUSH2 0x15EC JUMP JUMPDEST SWAP3 SWAP2 POP POP JUMP JUMPDEST PUSH1 0x0 PUSH1 0x80 DUP3 ADD SWAP1 POP PUSH2 0x16D3 PUSH1 0x0 DUP4 ADD DUP6 PUSH2 0x15EC JUMP JUMPDEST PUSH2 0x16E0 PUSH1 0x40 DUP4 ADD DUP5 PUSH2 0x15EC JUMP JUMPDEST SWAP4 SWAP3 POP POP POP JUMP JUMPDEST PUSH1 0x0 PUSH1 0x20 DUP3 ADD SWAP1 POP PUSH2 0x16FC PUSH1 0x0 DUP4 ADD DUP5 PUSH2 0x162A JUMP JUMPDEST SWAP3 SWAP2 POP POP JUMP JUMPDEST PUSH1 0x0 PUSH1 0x40 DUP3 ADD SWAP1 POP PUSH2 0x1717 PUSH1 0x0 DUP4 ADD DUP6 PUSH2 0x162A JUMP JUMPDEST PUSH2 0x1724 PUSH1 0x20 DUP4 ADD DUP5 PUSH2 0x162A JUMP JUMPDEST SWAP4 SWAP3 POP POP POP JUMP JUMPDEST PUSH1 0x0 PUSH1 0x20 DUP3 ADD SWAP1 POP PUSH2 0x1740 PUSH1 0x0 DUP4 ADD DUP5 PUSH2 0x1639 JUMP JUMPDEST SWAP3 SWAP2 POP POP JUMP JUMPDEST PUSH1 0x0 PUSH1 0x40 DUP3 ADD SWAP1 POP PUSH2 0x175B PUSH1 0x0 DUP4 ADD DUP6 PUSH2 0x1639 JUMP JUMPDEST PUSH2 0x1768 PUSH1 0x20 DUP4 ADD DUP5 PUSH2 0x1639 JUMP JUMPDEST SWAP4 SWAP3 POP POP POP JUMP JUMPDEST PUSH1 0x0 PUSH2 0x1779 PUSH2 0x178A JUMP JUMPDEST SWAP1 POP PUSH2 0x1785 DUP3 DUP3 PUSH2 0x1957 JUMP JUMPDEST SWAP2 SWAP1 POP JUMP JUMPDEST PUSH1 0x0 PUSH1 0x40 MLOAD SWAP1 POP SWAP1 JUMP JUMPDEST PUSH1 0x0 DUP3 DUP3 MSTORE PUSH1 0x20 DUP3 ADD SWAP1 POP SWAP3 SWAP2 POP POP JUMP JUMPDEST PUSH1 0x0 PUSH2 0x17B0 DUP3 PUSH2 0x1931 JUMP JUMPDEST SWAP2 POP PUSH2 0x17BB DUP4 PUSH2 0x1931 JUMP JUMPDEST SWAP3 POP DUP3 PUSH16 0xFFFFFFFFFFFFFFFFFFFFFFFFFFFFFFFF SUB DUP3 GT ISZERO PUSH2 0x17E0 JUMPI PUSH2 0x17DF PUSH2 0x19B9 JUMP JUMPDEST JUMPDEST DUP3 DUP3 ADD SWAP1 POP SWAP3 SWAP2 POP POP JUMP JUMPDEST PUSH1 0x0 PUSH2 0x17F6 DUP3 PUSH2 0x1931 JUMP JUMPDEST SWAP2 POP PUSH2 0x1801 DUP4 PUSH2 0x1931 JUMP JUMPDEST SWAP3 POP DUP3 PUSH2 0x1811 JUMPI PUSH2 0x1810 PUSH2 0x19E8 JUMP JUMPDEST JUMPDEST DUP3 DUP3 DIV SWAP1 POP SWAP3 SWAP2 POP POP JUMP JUMPDEST PUSH1 0x0 PUSH2 0x1827 DUP3 PUSH2 0x194D JUMP JUMPDEST SWAP2 POP PUSH2 0x1832 DUP4 PUSH2 0x194D JUMP JUMPDEST SWAP3 POP DUP3 PUSH2 0x1842 JUMPI PUSH2 0x1841 PUSH2 0x19E8 JUMP JUMPDEST JUMPDEST DUP3 DUP3 DIV SWAP1 POP SWAP3 SWAP2 POP POP JUMP JUMPDEST PUSH1 0x0 PUSH2 0x1858 DUP3 PUSH2 0x1931 JUMP JUMPDEST SWAP2 POP PUSH2 0x1863 DUP4 PUSH2 0x1931 JUMP JUMPDEST SWAP3 POP DUP2 PUSH16 0xFFFFFFFFFFFFFFFFFFFFFFFFFFFFFFFF DIV DUP4 GT DUP3 ISZERO ISZERO AND ISZERO PUSH2 0x188C JUMPI PUSH2 0x188B PUSH2 0x19B9 JUMP JUMPDEST JUMPDEST DUP3 DUP3 MUL SWAP1 POP SWAP3 SWAP2 POP POP JUMP JUMPDEST PUSH1 0x0 PUSH2 0x18A2 DUP3 PUSH2 0x194D JUMP JUMPDEST SWAP2 POP PUSH2 0x18AD DUP4 PUSH2 0x194D JUMP JUMPDEST SWAP3 POP DUP2 PUSH32 0xFFFFFFFFFFFFFFFFFFFFFFFFFFFFFFFFFFFFFFFFFFFFFFFFFFFFFFFFFFFFFFFF DIV DUP4 GT DUP3 ISZERO ISZERO AND ISZERO PUSH2 0x18E6 JUMPI PUSH2 0x18E5 PUSH2 0x19B9 JUMP JUMPDEST JUMPDEST DUP3 DUP3 MUL SWAP1 POP SWAP3 SWAP2 POP POP JUMP JUMPDEST PUSH1 0x0 PUSH2 0x18FC DUP3 PUSH2 0x1931 JUMP JUMPDEST SWAP2 POP PUSH2 0x1907 DUP4 PUSH2 0x1931 JUMP JUMPDEST SWAP3 POP DUP3 DUP3 LT ISZERO PUSH2 0x191A JUMPI PUSH2 0x1919 PUSH2 0x19B9 JUMP JUMPDEST JUMPDEST DUP3 DUP3 SUB SWAP1 POP SWAP3 SWAP2 POP POP JUMP JUMPDEST PUSH1 0x0 DUP2 ISZERO ISZERO SWAP1 POP SWAP2 SWAP1 POP JUMP JUMPDEST PUSH1 0x0 PUSH16 0xFFFFFFFFFFFFFFFFFFFFFFFFFFFFFFFF DUP3 AND SWAP1 POP SWAP2 SWAP1 POP JUMP JUMPDEST PUSH1 0x0 DUP2 SWAP1 POP SWAP2 SWAP1 POP JUMP JUMPDEST PUSH2 0x1960 DUP3 PUSH2 0x1A50 JUMP JUMPDEST DUP2 ADD DUP2 DUP2 LT PUSH8 0xFFFFFFFFFFFFFFFF DUP3 GT OR ISZERO PUSH2 0x197F JUMPI PUSH2 0x197E PUSH2 0x1A17 JUMP JUMPDEST JUMPDEST DUP1 PUSH1 0x40 MSTORE POP POP POP JUMP JUMPDEST PUSH1 0x0 PUSH2 0x1993 DUP3 PUSH2 0x1931 JUMP JUMPDEST SWAP2 POP PUSH2 0x199E DUP4 PUSH2 0x1931 JUMP JUMPDEST SWAP3 POP DUP3 PUSH2 0x19AE JUMPI PUSH2 0x19AD PUSH2 0x19E8 JUMP JUMPDEST JUMPDEST DUP3 DUP3 MOD SWAP1 POP SWAP3 SWAP2 POP POP JUMP JUMPDEST PUSH32 0x4E487B7100000000000000000000000000000000000000000000000000000000 PUSH1 0x0 MSTORE PUSH1 0x11 PUSH1 0x4 MSTORE PUSH1 0x24 PUSH1 0x0 REVERT JUMPDEST PUSH32 0x4E487B7100000000000000000000000000000000000000000000000000000000 PUSH1 0x0 MSTORE PUSH1 0x12 PUSH1 0x4 MSTORE PUSH1 0x24 PUSH1 0x0 REVERT JUMPDEST PUSH32 0x4E487B7100000000000000000000000000000000000000000000000000000000 PUSH1 0x0 MSTORE PUSH1 0x41 PUSH1 0x4 MSTORE PUSH1 0x24 PUSH1 0x0 REVERT JUMPDEST PUSH1 0x0 DUP1 REVERT JUMPDEST PUSH1 0x0 DUP1 REVERT JUMPDEST PUSH1 0x0 PUSH1 0x1F NOT PUSH1 0x1F DUP4 ADD AND SWAP1 POP SWAP2 SWAP1 POP JUMP JUMPDEST PUSH32 0x5475706C653A20556E646572666C6F7700000000000000000000000000000000 PUSH1 0x0 DUP3 ADD MSTORE POP JUMP JUMPDEST PUSH32 0x64656E6F6D696E61746F722063616E6E6F742062652030000000000000000000 PUSH1 0x0 DUP3 ADD MSTORE POP JUMP JUMPDEST PUSH2 0x1ABC DUP2 PUSH2 0x1931 JUMP JUMPDEST DUP2 EQ PUSH2 0x1AC7 JUMPI PUSH1 0x0 DUP1 REVERT JUMPDEST POP JUMP JUMPDEST PUSH2 0x1AD3 DUP2 PUSH2 0x194D JUMP JUMPDEST DUP2 EQ PUSH2 0x1ADE JUMPI PUSH1 0x0 DUP1 REVERT JUMPDEST POP JUMP INVALID LOG2 PUSH5 0x6970667358 0x22 SLT KECCAK256 AND 0xBE PUSH4 0xA29F3C0A PUSH29 0x10DC56398269AFBD1F7E981830C98EB427481D401D94306A64736F6C63 NUMBER STOP ADDMOD MOD STOP CALLER "
		},
		"gasEstimates": {
			"creation": {
				"codeDepositCost": "1387000",
				"executionCost": "1444",
				"totalCost": "1388444"
			},
			"external": {
				"_abbreviate((uint128,uint128))": "infinite",
				"_addTuple((uint128,uint128),(uint128,uint128))": "infinite",
				"_biggerTuple((uint128,uint128),(uint128,uint128))": "infinite",
				"_commonDenominator((uint128,uint128),(uint128,uint128))": "infinite",
				"_divideTuple((uint128,uint128),(uint128,uint128))": "infinite",
				"_gcd(uint128,uint128)": "infinite",
				"_lcm(uint128,uint128)": "infinite",
				"_multiplyTuple((uint128,uint128),(uint128,uint128))": "infinite",
				"_reverseTuple((uint128,uint128))": "infinite",
				"_simpleDivideTuple((uint128,uint128),(uint128,uint128))": "infinite",
				"_simpleMultiplyTuple((uint128,uint128),(uint128,uint128))": "infinite",
				"_sor256t(uint256,uint256)": "infinite",
				"_sort(uint128,uint128)": "infinite",
				"_subtractTuple((uint128,uint128),(uint128,uint128))": "infinite",
				"_toFixed((uint128,uint128))": "infinite"
			}
		},
		"methodIdentifiers": {
			"_abbreviate((uint128,uint128))": "c1ff96f9",
			"_addTuple((uint128,uint128),(uint128,uint128))": "b260c29c",
			"_biggerTuple((uint128,uint128),(uint128,uint128))": "1ff8a042",
			"_commonDenominator((uint128,uint128),(uint128,uint128))": "a57587fb",
			"_divideTuple((uint128,uint128),(uint128,uint128))": "294f1b2b",
			"_gcd(uint128,uint128)": "9b56a848",
			"_lcm(uint128,uint128)": "d72b9bd8",
			"_multiplyTuple((uint128,uint128),(uint128,uint128))": "d1a12571",
			"_reverseTuple((uint128,uint128))": "16a53150",
			"_simpleDivideTuple((uint128,uint128),(uint128,uint128))": "4712679b",
			"_simpleMultiplyTuple((uint128,uint128),(uint128,uint128))": "6f0f608e",
			"_sor256t(uint256,uint256)": "82000269",
			"_sort(uint128,uint128)": "cea809b8",
			"_subtractTuple((uint128,uint128),(uint128,uint128))": "fde3ad60",
			"_toFixed((uint128,uint128))": "7a9e168d"
		}
	},
	"abi": [
		{
			"inputs": [
				{
					"components": [
						{
							"internalType": "uint128",
							"name": "numerator",
							"type": "uint128"
						},
						{
							"internalType": "uint128",
							"name": "denominator",
							"type": "uint128"
						}
					],
					"internalType": "struct FractionTuple128.Tuple",
					"name": "wantedTuple",
					"type": "tuple"
				}
			],
			"name": "_abbreviate",
			"outputs": [
				{
					"components": [
						{
							"internalType": "uint128",
							"name": "numerator",
							"type": "uint128"
						},
						{
							"internalType": "uint128",
							"name": "denominator",
							"type": "uint128"
						}
					],
					"internalType": "struct FractionTuple128.Tuple",
					"name": "",
					"type": "tuple"
				}
			],
			"stateMutability": "view",
			"type": "function"
		},
		{
			"inputs": [
				{
					"components": [
						{
							"internalType": "uint128",
							"name": "numerator",
							"type": "uint128"
						},
						{
							"internalType": "uint128",
							"name": "denominator",
							"type": "uint128"
						}
					],
					"internalType": "struct FractionTuple128.Tuple",
					"name": "a",
					"type": "tuple"
				},
				{
					"components": [
						{
							"internalType": "uint128",
							"name": "numerator",
							"type": "uint128"
						},
						{
							"internalType": "uint128",
							"name": "denominator",
							"type": "uint128"
						}
					],
					"internalType": "struct FractionTuple128.Tuple",
					"name": "b",
					"type": "tuple"
				}
			],
			"name": "_addTuple",
			"outputs": [
				{
					"components": [
						{
							"internalType": "uint128",
							"name": "numerator",
							"type": "uint128"
						},
						{
							"internalType": "uint128",
							"name": "denominator",
							"type": "uint128"
						}
					],
					"internalType": "struct FractionTuple128.Tuple",
					"name": "",
					"type": "tuple"
				}
			],
			"stateMutability": "view",
			"type": "function"
		},
		{
			"inputs": [
				{
					"components": [
						{
							"internalType": "uint128",
							"name": "numerator",
							"type": "uint128"
						},
						{
							"internalType": "uint128",
							"name": "denominator",
							"type": "uint128"
						}
					],
					"internalType": "struct FractionTuple128.Tuple",
					"name": "big",
					"type": "tuple"
				},
				{
					"components": [
						{
							"internalType": "uint128",
							"name": "numerator",
							"type": "uint128"
						},
						{
							"internalType": "uint128",
							"name": "denominator",
							"type": "uint128"
						}
					],
					"internalType": "struct FractionTuple128.Tuple",
					"name": "small",
					"type": "tuple"
				}
			],
			"name": "_biggerTuple",
			"outputs": [
				{
					"internalType": "bool",
					"name": "",
					"type": "bool"
				}
			],
			"stateMutability": "view",
			"type": "function"
		},
		{
			"inputs": [
				{
					"components": [
						{
							"internalType": "uint128",
							"name": "numerator",
							"type": "uint128"
						},
						{
							"internalType": "uint128",
							"name": "denominator",
							"type": "uint128"
						}
					],
					"internalType": "struct FractionTuple128.Tuple",
					"name": "a",
					"type": "tuple"
				},
				{
					"components": [
						{
							"internalType": "uint128",
							"name": "numerator",
							"type": "uint128"
						},
						{
							"internalType": "uint128",
							"name": "denominator",
							"type": "uint128"
						}
					],
					"internalType": "struct FractionTuple128.Tuple",
					"name": "b",
					"type": "tuple"
				}
			],
			"name": "_commonDenominator",
			"outputs": [
				{
					"components": [
						{
							"internalType": "uint128",
							"name": "numerator",
							"type": "uint128"
						},
						{
							"internalType": "uint128",
							"name": "denominator",
							"type": "uint128"
						}
					],
					"internalType": "struct FractionTuple128.Tuple",
					"name": "",
					"type": "tuple"
				},
				{
					"components": [
						{
							"internalType": "uint128",
							"name": "numerator",
							"type": "uint128"
						},
						{
							"internalType": "uint128",
							"name": "denominator",
							"type": "uint128"
						}
					],
					"internalType": "struct FractionTuple128.Tuple",
					"name": "",
					"type": "tuple"
				}
			],
			"stateMutability": "view",
			"type": "function"
		},
		{
			"inputs": [
				{
					"components": [
						{
							"internalType": "uint128",
							"name": "numerator",
							"type": "uint128"
						},
						{
							"internalType": "uint128",
							"name": "denominator",
							"type": "uint128"
						}
					],
					"internalType": "struct FractionTuple128.Tuple",
					"name": "a",
					"type": "tuple"
				},
				{
					"components": [
						{
							"internalType": "uint128",
							"name": "numerator",
							"type": "uint128"
						},
						{
							"internalType": "uint128",
							"name": "denominator",
							"type": "uint128"
						}
					],
					"internalType": "struct FractionTuple128.Tuple",
					"name": "dividingTuple",
					"type": "tuple"
				}
			],
			"name": "_divideTuple",
			"outputs": [
				{
					"components": [
						{
							"internalType": "uint128",
							"name": "numerator",
							"type": "uint128"
						},
						{
							"internalType": "uint128",
							"name": "denominator",
							"type": "uint128"
						}
					],
					"internalType": "struct FractionTuple128.Tuple",
					"name": "",
					"type": "tuple"
				}
			],
			"stateMutability": "view",
			"type": "function"
		},
		{
			"inputs": [
				{
					"internalType": "uint128",
					"name": "a",
					"type": "uint128"
				},
				{
					"internalType": "uint128",
					"name": "b",
					"type": "uint128"
				}
			],
			"name": "_gcd",
			"outputs": [
				{
					"internalType": "uint128",
					"name": "",
					"type": "uint128"
				}
			],
			"stateMutability": "view",
			"type": "function"
		},
		{
			"inputs": [
				{
					"internalType": "uint128",
					"name": "a",
					"type": "uint128"
				},
				{
					"internalType": "uint128",
					"name": "b",
					"type": "uint128"
				}
			],
			"name": "_lcm",
			"outputs": [
				{
					"internalType": "uint128",
					"name": "",
					"type": "uint128"
				}
			],
			"stateMutability": "view",
			"type": "function"
		},
		{
			"inputs": [
				{
					"components": [
						{
							"internalType": "uint128",
							"name": "numerator",
							"type": "uint128"
						},
						{
							"internalType": "uint128",
							"name": "denominator",
							"type": "uint128"
						}
					],
					"internalType": "struct FractionTuple128.Tuple",
					"name": "a",
					"type": "tuple"
				},
				{
					"components": [
						{
							"internalType": "uint128",
							"name": "numerator",
							"type": "uint128"
						},
						{
							"internalType": "uint128",
							"name": "denominator",
							"type": "uint128"
						}
					],
					"internalType": "struct FractionTuple128.Tuple",
					"name": "b",
					"type": "tuple"
				}
			],
			"name": "_multiplyTuple",
			"outputs": [
				{
					"components": [
						{
							"internalType": "uint128",
							"name": "numerator",
							"type": "uint128"
						},
						{
							"internalType": "uint128",
							"name": "denominator",
							"type": "uint128"
						}
					],
					"internalType": "struct FractionTuple128.Tuple",
					"name": "",
					"type": "tuple"
				}
			],
			"stateMutability": "view",
			"type": "function"
		},
		{
			"inputs": [
				{
					"components": [
						{
							"internalType": "uint128",
							"name": "numerator",
							"type": "uint128"
						},
						{
							"internalType": "uint128",
							"name": "denominator",
							"type": "uint128"
						}
					],
					"internalType": "struct FractionTuple128.Tuple",
					"name": "wantedTuple",
					"type": "tuple"
				}
			],
			"name": "_reverseTuple",
			"outputs": [
				{
					"components": [
						{
							"internalType": "uint128",
							"name": "numerator",
							"type": "uint128"
						},
						{
							"internalType": "uint128",
							"name": "denominator",
							"type": "uint128"
						}
					],
					"internalType": "struct FractionTuple128.Tuple",
					"name": "",
					"type": "tuple"
				}
			],
			"stateMutability": "view",
			"type": "function"
		},
		{
			"inputs": [
				{
					"components": [
						{
							"internalType": "uint128",
							"name": "numerator",
							"type": "uint128"
						},
						{
							"internalType": "uint128",
							"name": "denominator",
							"type": "uint128"
						}
					],
					"internalType": "struct FractionTuple128.Tuple",
					"name": "a",
					"type": "tuple"
				},
				{
					"components": [
						{
							"internalType": "uint128",
							"name": "numerator",
							"type": "uint128"
						},
						{
							"internalType": "uint128",
							"name": "denominator",
							"type": "uint128"
						}
					],
					"internalType": "struct FractionTuple128.Tuple",
					"name": "dividingTuple",
					"type": "tuple"
				}
			],
			"name": "_simpleDivideTuple",
			"outputs": [
				{
					"components": [
						{
							"internalType": "uint128",
							"name": "numerator",
							"type": "uint128"
						},
						{
							"internalType": "uint128",
							"name": "denominator",
							"type": "uint128"
						}
					],
					"internalType": "struct FractionTuple128.Tuple",
					"name": "",
					"type": "tuple"
				}
			],
			"stateMutability": "view",
			"type": "function"
		},
		{
			"inputs": [
				{
					"components": [
						{
							"internalType": "uint128",
							"name": "numerator",
							"type": "uint128"
						},
						{
							"internalType": "uint128",
							"name": "denominator",
							"type": "uint128"
						}
					],
					"internalType": "struct FractionTuple128.Tuple",
					"name": "a",
					"type": "tuple"
				},
				{
					"components": [
						{
							"internalType": "uint128",
							"name": "numerator",
							"type": "uint128"
						},
						{
							"internalType": "uint128",
							"name": "denominator",
							"type": "uint128"
						}
					],
					"internalType": "struct FractionTuple128.Tuple",
					"name": "b",
					"type": "tuple"
				}
			],
			"name": "_simpleMultiplyTuple",
			"outputs": [
				{
					"components": [
						{
							"internalType": "uint128",
							"name": "numerator",
							"type": "uint128"
						},
						{
							"internalType": "uint128",
							"name": "denominator",
							"type": "uint128"
						}
					],
					"internalType": "struct FractionTuple128.Tuple",
					"name": "",
					"type": "tuple"
				}
			],
			"stateMutability": "view",
			"type": "function"
		},
		{
			"inputs": [
				{
					"internalType": "uint256",
					"name": "a",
					"type": "uint256"
				},
				{
					"internalType": "uint256",
					"name": "b",
					"type": "uint256"
				}
			],
			"name": "_sor256t",
			"outputs": [
				{
					"internalType": "uint256",
					"name": "",
					"type": "uint256"
				},
				{
					"internalType": "uint256",
					"name": "",
					"type": "uint256"
				}
			],
			"stateMutability": "view",
			"type": "function"
		},
		{
			"inputs": [
				{
					"internalType": "uint128",
					"name": "a",
					"type": "uint128"
				},
				{
					"internalType": "uint128",
					"name": "b",
					"type": "uint128"
				}
			],
			"name": "_sort",
			"outputs": [
				{
					"internalType": "uint128",
					"name": "",
					"type": "uint128"
				},
				{
					"internalType": "uint128",
					"name": "",
					"type": "uint128"
				}
			],
			"stateMutability": "view",
			"type": "function"
		},
		{
			"inputs": [
				{
					"components": [
						{
							"internalType": "uint128",
							"name": "numerator",
							"type": "uint128"
						},
						{
							"internalType": "uint128",
							"name": "denominator",
							"type": "uint128"
						}
					],
					"internalType": "struct FractionTuple128.Tuple",
					"name": "a",
					"type": "tuple"
				},
				{
					"components": [
						{
							"internalType": "uint128",
							"name": "numerator",
							"type": "uint128"
						},
						{
							"internalType": "uint128",
							"name": "denominator",
							"type": "uint128"
						}
					],
					"internalType": "struct FractionTuple128.Tuple",
					"name": "b",
					"type": "tuple"
				}
			],
			"name": "_subtractTuple",
			"outputs": [
				{
					"components": [
						{
							"internalType": "uint128",
							"name": "numerator",
							"type": "uint128"
						},
						{
							"internalType": "uint128",
							"name": "denominator",
							"type": "uint128"
						}
					],
					"internalType": "struct FractionTuple128.Tuple",
					"name": "",
					"type": "tuple"
				}
			],
			"stateMutability": "view",
			"type": "function"
		},
		{
			"inputs": [
				{
					"components": [
						{
							"internalType": "uint128",
							"name": "numerator",
							"type": "uint128"
						},
						{
							"internalType": "uint128",
							"name": "denominator",
							"type": "uint128"
						}
					],
					"internalType": "struct FractionTuple128.Tuple",
					"name": "a",
					"type": "tuple"
				}
			],
			"name": "_toFixed",
			"outputs": [
				{
					"internalType": "uint256",
					"name": "",
					"type": "uint256"
				}
			],
			"stateMutability": "view",
			"type": "function"
		}
	]
}