{
	"data": {
		"bytecode": {
			"linkReferences": {},
			"object": "608060405234801561001057600080fd5b50611b4a806100206000396000f3fe608060405234801561001057600080fd5b506004361061010b5760003560e01c80636ea8e4ce116100a257806393c552291161007157806393c5522914610351578063cc055c0e14610381578063ded8f76d146103b1578063ed615706146103e2578063fa2870bc146104125761010b565b80636ea8e4ce14610290578063880a8704146102c05780638df922bd146102f157806390ecca67146103215761010b565b806327609465116100de57806327609465146101d057806339d0bcf5146102005780634f285ccc1461023057806367fa5c28146102605761010b565b80630524035e146101105780630dcbfe6f146101405780631c9d630d1461017057806321cbc8de146101a0575b600080fd5b61012a60048036038101906101259190611509565b610442565b6040516101379190611747565b60405180910390f35b61015a600480360381019061015591906114e0565b61045c565b6040516101679190611747565b60405180910390f35b61018a60048036038101906101859190611509565b610474565b604051610197919061168c565b60405180910390f35b6101ba60048036038101906101b591906114e0565b610488565b6040516101c7919061168c565b60405180910390f35b6101ea60048036038101906101e59190611509565b61049a565b6040516101f79190611747565b60405180910390f35b61021a60048036038101906102159190611509565b6104b4565b6040516102279190611747565b60405180910390f35b61024a60048036038101906102459190611509565b6104ce565b6040516102579190611747565b60405180910390f35b61027a60048036038101906102759190611509565b6104e8565b6040516102879190611747565b60405180910390f35b6102aa60048036038101906102a591906114e0565b610502565b6040516102b79190611747565b60405180910390f35b6102da60048036038101906102d59190611509565b61051a565b6040516102e8929190611762565b60405180910390f35b61030b60048036038101906103069190611509565b61053f565b6040516103189190611747565b60405180910390f35b61033b60048036038101906103369190611545565b610559565b604051610348919061178b565b60405180910390f35b61036b60048036038101906103669190611545565b61056d565b604051610378919061178b565b60405180910390f35b61039b60048036038101906103969190611509565b610581565b6040516103a89190611747565b60405180910390f35b6103cb60048036038101906103c69190611545565b61059b565b6040516103d99291906117a6565b60405180910390f35b6103fc60048036038101906103f79190611509565b6105b3565b6040516104099190611747565b60405180910390f35b61042c60048036038101906104279190611509565b6105cd565b6040516104399190611747565b60405180910390f35b61044a611465565b61045483836105e7565b905092915050565b610464611465565b61046d8261069d565b9050919050565b60006104808383610757565b905092915050565b600061049382610836565b9050919050565b6104a2611465565b6104ac83836108ae565b905092915050565b6104bc611465565b6104c683836109ac565b905092915050565b6104d6611465565b6104e08383610a99565b905092915050565b6104f0611465565b6104fa8383610b82565b905092915050565b61050a611465565b61051382610c38565b9050919050565b610522611465565b61052a611465565b6105348484610cf6565b915091509250929050565b610547611465565b6105518383610e3c565b905092915050565b60006105658383610f6e565b905092915050565b60006105798383610f9f565b905092915050565b610589611465565b6105938383610fea565b905092915050565b6000806105a884846110e8565b915091509250929050565b6105bb611465565b6105c5838361110c565b905092915050565b6105d5611465565b6105df8383611263565b905092915050565b6105ef611465565b82600081602001511415610638576040517f08c379a000000000000000000000000000000000000000000000000000000000815260040161062f90611727565b60405180910390fd5b82600081602001511415610681576040517f08c379a000000000000000000000000000000000000000000000000000000000815260040161067890611727565b60405180910390fd5b61069361068e8686610e3c565b61069d565b9250505092915050565b6106a5611465565b816000816020015114156106ee576040517f08c379a00000000000000000000000000000000000000000000000000000000081526004016106e590611727565b60405180910390fd5b6106f783610836565b1561074d57600061071084600001518560200151610f9f565b9050604051806040016040528082866000015161072d919061185b565b8152602001828660200151610742919061185b565b815250925050610751565b8291505b50919050565b6000826000816020015114156107a2576040517f08c379a000000000000000000000000000000000000000000000000000000000815260040161079990611727565b60405180910390fd5b826000816020015114156107eb576040517f08c379a00000000000000000000000000000000000000000000000000000000081526004016107e290611727565b60405180910390fd5b6107f3611465565b6107fb611465565b6108058787610cf6565b809250819350505080600001518260000151106108275760019450505061082e565b6000945050505b505092915050565b600081600081602001511415610881576040517f08c379a000000000000000000000000000000000000000000000000000000000815260040161087890611727565b60405180910390fd5b600161089584600001518560200151610f9f565b146108a357600191506108a8565b600091505b50919050565b6108b6611465565b826000816020015114156108ff576040517f08c379a00000000000000000000000000000000000000000000000000000000081526004016108f690611727565b60405180910390fd5b82600081602001511415610948576040517f08c379a000000000000000000000000000000000000000000000000000000000815260040161093f90611727565b60405180910390fd5b600084600001511415610990576040517f08c379a000000000000000000000000000000000000000000000000000000000815260040161098790611727565b60405180910390fd5b6109a28561099d86610c38565b61110c565b9250505092915050565b6109b4611465565b826000816020015114156109fd576040517f08c379a00000000000000000000000000000000000000000000000000000000081526004016109f490611727565b60405180910390fd5b82600081602001511415610a46576040517f08c379a0000000000000000000000000000000000000000000000000000000008152600401610a3d90611727565b60405180910390fd5b6040518060400160405280610a6c8660000151886000015161134690919063ffffffff16565b8152602001610a8c8660200151886020015161134690919063ffffffff16565b8152509250505092915050565b610aa1611465565b82600081602001511415610aea576040517f08c379a0000000000000000000000000000000000000000000000000000000008152600401610ae190611727565b60405180910390fd5b82600081602001511415610b33576040517f08c379a0000000000000000000000000000000000000000000000000000000008152600401610b2a90611727565b60405180910390fd5b610b3d8585610cf6565b80955081965050506040518060400160405280610b6b866000015188600001516113b390919063ffffffff16565b815260200186602001518152509250505092915050565b610b8a611465565b82600081602001511415610bd3576040517f08c379a0000000000000000000000000000000000000000000000000000000008152600401610bca90611727565b60405180910390fd5b82600081602001511415610c1c576040517f08c379a0000000000000000000000000000000000000000000000000000000008152600401610c1390611727565b60405180910390fd5b610c2e610c298686610a99565b61069d565b9250505092915050565b610c40611465565b81600081602001511415610c89576040517f08c379a0000000000000000000000000000000000000000000000000000000008152600401610c8090611727565b60405180910390fd5b600083600001511415610cd1576040517f08c379a0000000000000000000000000000000000000000000000000000000008152600401610cc890611727565b60405180910390fd5b6040518060400160405280846020015181526020018460000151815250915050919050565b610cfe611465565b610d06611465565b83600081602001511415610d4f576040517f08c379a0000000000000000000000000000000000000000000000000000000008152600401610d4690611727565b60405180910390fd5b83600081602001511415610d98576040517f08c379a0000000000000000000000000000000000000000000000000000000008152600401610d8f90611727565b60405180910390fd5b6000610dac87602001518760200151610f6e565b90506000610dd68860000151896020015184610dc8919061185b565b61134690919063ffffffff16565b90506000610e008860000151896020015185610df2919061185b565b61134690919063ffffffff16565b90506040518060400160405280838152602001848152506040518060400160405280838152602001858152509650965050505050509250929050565b610e44611465565b82600081602001511415610e8d576040517f08c379a0000000000000000000000000000000000000000000000000000000008152600401610e8490611727565b60405180910390fd5b82600081602001511415610ed6576040517f08c379a0000000000000000000000000000000000000000000000000000000008152600401610ecd90611727565b60405180910390fd5b610ee08585610757565b610f1f576040517f08c379a0000000000000000000000000000000000000000000000000000000008152600401610f1690611707565b60405180910390fd5b610f298585610cf6565b80955081965050506040518060400160405280610f578660000151886000015161140c90919063ffffffff16565b815260200186602001518152509250505092915050565b6000610f9782610f7e8585610f9f565b85610f89919061185b565b61134690919063ffffffff16565b905092915050565b6000610fab83836110e8565b80935081945050505b60008214610fe1578183610fc89190611961565b9250610fd483836110e8565b8093508194505050610fb4565b82905092915050565b610ff2611465565b8260008160200151141561103b576040517f08c379a000000000000000000000000000000000000000000000000000000000815260040161103290611727565b60405180910390fd5b82600081602001511415611084576040517f08c379a000000000000000000000000000000000000000000000000000000000815260040161107b90611727565b60405180910390fd5b6000846000015114156110cc576040517f08c379a00000000000000000000000000000000000000000000000000000000081526004016110c390611727565b60405180910390fd5b6110de856110d986610c38565b6109ac565b9250505092915050565b600080828411156110fe57838391509150611105565b8284915091505b9250929050565b611114611465565b8260008160200151141561115d576040517f08c379a000000000000000000000000000000000000000000000000000000000815260040161115490611727565b60405180910390fd5b826000816020015114156111a6576040517f08c379a000000000000000000000000000000000000000000000000000000000815260040161119d90611727565b60405180910390fd5b6111af8561069d565b94506111ba8461069d565b935060006111e3604051806040016040528088600001518152602001876020015181525061069d565b9050600061120c604051806040016040528088600001518152602001896020015181525061069d565b905060405180604001604052806112348360000151856000015161134690919063ffffffff16565b81526020016112548360200151856020015161134690919063ffffffff16565b81525094505050505092915050565b61126b611465565b826000816020015114156112b4576040517f08c379a00000000000000000000000000000000000000000000000000000000081526004016112ab90611727565b60405180910390fd5b826000816020015114156112fd576040517f08c379a00000000000000000000000000000000000000000000000000000000081526004016112f490611727565b60405180910390fd5b611305611465565b61130d611465565b6113178787610cf6565b8092508193505050806000015182600001511061133857869450505061133e565b85945050505b505092915050565b60008082148061136e57508282838561135f919061188c565b92508261136c919061185b565b145b6113ad576040517f08c379a00000000000000000000000000000000000000000000000000000000081526004016113a4906116c7565b60405180910390fd5b92915050565b60008282846113c29190611805565b9150811015611406576040517f08c379a00000000000000000000000000000000000000000000000000000000081526004016113fd906116e7565b60405180910390fd5b92915050565b600082828461141b91906118e6565b915081111561145f576040517f08c379a0000000000000000000000000000000000000000000000000000000008152600401611456906116a7565b60405180910390fd5b92915050565b604051806040016040528060008152602001600081525090565b60006040828403121561149157600080fd5b61149b60406117cf565b905060006114ab848285016114cb565b60008301525060206114bf848285016114cb565b60208301525092915050565b6000813590506114da81611afd565b92915050565b6000604082840312156114f257600080fd5b60006115008482850161147f565b91505092915050565b6000806080838503121561151c57600080fd5b600061152a8582860161147f565b925050604061153b8582860161147f565b9150509250929050565b6000806040838503121561155857600080fd5b6000611566858286016114cb565b9250506020611577858286016114cb565b9150509250929050565b61158a8161191a565b82525050565b600061159d6015836117f4565b91506115a882611a30565b602082019050919050565b60006115c06014836117f4565b91506115cb82611a59565b602082019050919050565b60006115e36014836117f4565b91506115ee82611a82565b602082019050919050565b60006116066010836117f4565b915061161182611aab565b602082019050919050565b60006116296017836117f4565b915061163482611ad4565b602082019050919050565b604082016000820151611655600085018261166e565b506020820151611668602085018261166e565b50505050565b61167781611926565b82525050565b61168681611926565b82525050565b60006020820190506116a16000830184611581565b92915050565b600060208201905081810360008301526116c081611590565b9050919050565b600060208201905081810360008301526116e0816115b3565b9050919050565b60006020820190508181036000830152611700816115d6565b9050919050565b60006020820190508181036000830152611720816115f9565b9050919050565b600060208201905081810360008301526117408161161c565b9050919050565b600060408201905061175c600083018461163f565b92915050565b6000608082019050611777600083018561163f565b611784604083018461163f565b9392505050565b60006020820190506117a0600083018461167d565b92915050565b60006040820190506117bb600083018561167d565b6117c8602083018461167d565b9392505050565b60006117d96117ea565b90506117e58282611930565b919050565b6000604051905090565b600082825260208201905092915050565b600061181082611926565b915061181b83611926565b9250827fffffffffffffffffffffffffffffffffffffffffffffffffffffffffffffffff038211156118505761184f611992565b5b828201905092915050565b600061186682611926565b915061187183611926565b925082611881576118806119c1565b5b828204905092915050565b600061189782611926565b91506118a283611926565b9250817fffffffffffffffffffffffffffffffffffffffffffffffffffffffffffffffff04831182151516156118db576118da611992565b5b828202905092915050565b60006118f182611926565b91506118fc83611926565b92508282101561190f5761190e611992565b5b828203905092915050565b60008115159050919050565b6000819050919050565b61193982611a1f565b810181811067ffffffffffffffff82111715611958576119576119f0565b5b80604052505050565b600061196c82611926565b915061197783611926565b925082611987576119866119c1565b5b828206905092915050565b7f4e487b7100000000000000000000000000000000000000000000000000000000600052601160045260246000fd5b7f4e487b7100000000000000000000000000000000000000000000000000000000600052601260045260246000fd5b7f4e487b7100000000000000000000000000000000000000000000000000000000600052604160045260246000fd5b6000601f19601f8301169050919050565b7f64732d6d6174682d7375622d756e646572666c6f770000000000000000000000600082015250565b7f64732d6d6174682d6d756c2d6f766572666c6f77000000000000000000000000600082015250565b7f64732d6d6174682d6164642d6f766572666c6f77000000000000000000000000600082015250565b7f5475706c653a20556e646572666c6f7700000000000000000000000000000000600082015250565b7f64656e6f6d696e61746f722063616e6e6f742062652030000000000000000000600082015250565b611b0681611926565b8114611b1157600080fd5b5056fea264697066735822122089951a9aa0240b9a18120a44d7359fb1472c92543c29df4de64bc9881612e72264736f6c63430008040033",
			"opcodes": "PUSH1 0x80 PUSH1 0x40 MSTORE CALLVALUE DUP1 ISZERO PUSH2 0x10 JUMPI PUSH1 0x0 DUP1 REVERT JUMPDEST POP PUSH2 0x1B4A DUP1 PUSH2 0x20 PUSH1 0x0 CODECOPY PUSH1 0x0 RETURN INVALID PUSH1 0x80 PUSH1 0x40 MSTORE CALLVALUE DUP1 ISZERO PUSH2 0x10 JUMPI PUSH1 0x0 DUP1 REVERT JUMPDEST POP PUSH1 0x4 CALLDATASIZE LT PUSH2 0x10B JUMPI PUSH1 0x0 CALLDATALOAD PUSH1 0xE0 SHR DUP1 PUSH4 0x6EA8E4CE GT PUSH2 0xA2 JUMPI DUP1 PUSH4 0x93C55229 GT PUSH2 0x71 JUMPI DUP1 PUSH4 0x93C55229 EQ PUSH2 0x351 JUMPI DUP1 PUSH4 0xCC055C0E EQ PUSH2 0x381 JUMPI DUP1 PUSH4 0xDED8F76D EQ PUSH2 0x3B1 JUMPI DUP1 PUSH4 0xED615706 EQ PUSH2 0x3E2 JUMPI DUP1 PUSH4 0xFA2870BC EQ PUSH2 0x412 JUMPI PUSH2 0x10B JUMP JUMPDEST DUP1 PUSH4 0x6EA8E4CE EQ PUSH2 0x290 JUMPI DUP1 PUSH4 0x880A8704 EQ PUSH2 0x2C0 JUMPI DUP1 PUSH4 0x8DF922BD EQ PUSH2 0x2F1 JUMPI DUP1 PUSH4 0x90ECCA67 EQ PUSH2 0x321 JUMPI PUSH2 0x10B JUMP JUMPDEST DUP1 PUSH4 0x27609465 GT PUSH2 0xDE JUMPI DUP1 PUSH4 0x27609465 EQ PUSH2 0x1D0 JUMPI DUP1 PUSH4 0x39D0BCF5 EQ PUSH2 0x200 JUMPI DUP1 PUSH4 0x4F285CCC EQ PUSH2 0x230 JUMPI DUP1 PUSH4 0x67FA5C28 EQ PUSH2 0x260 JUMPI PUSH2 0x10B JUMP JUMPDEST DUP1 PUSH4 0x524035E EQ PUSH2 0x110 JUMPI DUP1 PUSH4 0xDCBFE6F EQ PUSH2 0x140 JUMPI DUP1 PUSH4 0x1C9D630D EQ PUSH2 0x170 JUMPI DUP1 PUSH4 0x21CBC8DE EQ PUSH2 0x1A0 JUMPI JUMPDEST PUSH1 0x0 DUP1 REVERT JUMPDEST PUSH2 0x12A PUSH1 0x4 DUP1 CALLDATASIZE SUB DUP2 ADD SWAP1 PUSH2 0x125 SWAP2 SWAP1 PUSH2 0x1509 JUMP JUMPDEST PUSH2 0x442 JUMP JUMPDEST PUSH1 0x40 MLOAD PUSH2 0x137 SWAP2 SWAP1 PUSH2 0x1747 JUMP JUMPDEST PUSH1 0x40 MLOAD DUP1 SWAP2 SUB SWAP1 RETURN JUMPDEST PUSH2 0x15A PUSH1 0x4 DUP1 CALLDATASIZE SUB DUP2 ADD SWAP1 PUSH2 0x155 SWAP2 SWAP1 PUSH2 0x14E0 JUMP JUMPDEST PUSH2 0x45C JUMP JUMPDEST PUSH1 0x40 MLOAD PUSH2 0x167 SWAP2 SWAP1 PUSH2 0x1747 JUMP JUMPDEST PUSH1 0x40 MLOAD DUP1 SWAP2 SUB SWAP1 RETURN JUMPDEST PUSH2 0x18A PUSH1 0x4 DUP1 CALLDATASIZE SUB DUP2 ADD SWAP1 PUSH2 0x185 SWAP2 SWAP1 PUSH2 0x1509 JUMP JUMPDEST PUSH2 0x474 JUMP JUMPDEST PUSH1 0x40 MLOAD PUSH2 0x197 SWAP2 SWAP1 PUSH2 0x168C JUMP JUMPDEST PUSH1 0x40 MLOAD DUP1 SWAP2 SUB SWAP1 RETURN JUMPDEST PUSH2 0x1BA PUSH1 0x4 DUP1 CALLDATASIZE SUB DUP2 ADD SWAP1 PUSH2 0x1B5 SWAP2 SWAP1 PUSH2 0x14E0 JUMP JUMPDEST PUSH2 0x488 JUMP JUMPDEST PUSH1 0x40 MLOAD PUSH2 0x1C7 SWAP2 SWAP1 PUSH2 0x168C JUMP JUMPDEST PUSH1 0x40 MLOAD DUP1 SWAP2 SUB SWAP1 RETURN JUMPDEST PUSH2 0x1EA PUSH1 0x4 DUP1 CALLDATASIZE SUB DUP2 ADD SWAP1 PUSH2 0x1E5 SWAP2 SWAP1 PUSH2 0x1509 JUMP JUMPDEST PUSH2 0x49A JUMP JUMPDEST PUSH1 0x40 MLOAD PUSH2 0x1F7 SWAP2 SWAP1 PUSH2 0x1747 JUMP JUMPDEST PUSH1 0x40 MLOAD DUP1 SWAP2 SUB SWAP1 RETURN JUMPDEST PUSH2 0x21A PUSH1 0x4 DUP1 CALLDATASIZE SUB DUP2 ADD SWAP1 PUSH2 0x215 SWAP2 SWAP1 PUSH2 0x1509 JUMP JUMPDEST PUSH2 0x4B4 JUMP JUMPDEST PUSH1 0x40 MLOAD PUSH2 0x227 SWAP2 SWAP1 PUSH2 0x1747 JUMP JUMPDEST PUSH1 0x40 MLOAD DUP1 SWAP2 SUB SWAP1 RETURN JUMPDEST PUSH2 0x24A PUSH1 0x4 DUP1 CALLDATASIZE SUB DUP2 ADD SWAP1 PUSH2 0x245 SWAP2 SWAP1 PUSH2 0x1509 JUMP JUMPDEST PUSH2 0x4CE JUMP JUMPDEST PUSH1 0x40 MLOAD PUSH2 0x257 SWAP2 SWAP1 PUSH2 0x1747 JUMP JUMPDEST PUSH1 0x40 MLOAD DUP1 SWAP2 SUB SWAP1 RETURN JUMPDEST PUSH2 0x27A PUSH1 0x4 DUP1 CALLDATASIZE SUB DUP2 ADD SWAP1 PUSH2 0x275 SWAP2 SWAP1 PUSH2 0x1509 JUMP JUMPDEST PUSH2 0x4E8 JUMP JUMPDEST PUSH1 0x40 MLOAD PUSH2 0x287 SWAP2 SWAP1 PUSH2 0x1747 JUMP JUMPDEST PUSH1 0x40 MLOAD DUP1 SWAP2 SUB SWAP1 RETURN JUMPDEST PUSH2 0x2AA PUSH1 0x4 DUP1 CALLDATASIZE SUB DUP2 ADD SWAP1 PUSH2 0x2A5 SWAP2 SWAP1 PUSH2 0x14E0 JUMP JUMPDEST PUSH2 0x502 JUMP JUMPDEST PUSH1 0x40 MLOAD PUSH2 0x2B7 SWAP2 SWAP1 PUSH2 0x1747 JUMP JUMPDEST PUSH1 0x40 MLOAD DUP1 SWAP2 SUB SWAP1 RETURN JUMPDEST PUSH2 0x2DA PUSH1 0x4 DUP1 CALLDATASIZE SUB DUP2 ADD SWAP1 PUSH2 0x2D5 SWAP2 SWAP1 PUSH2 0x1509 JUMP JUMPDEST PUSH2 0x51A JUMP JUMPDEST PUSH1 0x40 MLOAD PUSH2 0x2E8 SWAP3 SWAP2 SWAP1 PUSH2 0x1762 JUMP JUMPDEST PUSH1 0x40 MLOAD DUP1 SWAP2 SUB SWAP1 RETURN JUMPDEST PUSH2 0x30B PUSH1 0x4 DUP1 CALLDATASIZE SUB DUP2 ADD SWAP1 PUSH2 0x306 SWAP2 SWAP1 PUSH2 0x1509 JUMP JUMPDEST PUSH2 0x53F JUMP JUMPDEST PUSH1 0x40 MLOAD PUSH2 0x318 SWAP2 SWAP1 PUSH2 0x1747 JUMP JUMPDEST PUSH1 0x40 MLOAD DUP1 SWAP2 SUB SWAP1 RETURN JUMPDEST PUSH2 0x33B PUSH1 0x4 DUP1 CALLDATASIZE SUB DUP2 ADD SWAP1 PUSH2 0x336 SWAP2 SWAP1 PUSH2 0x1545 JUMP JUMPDEST PUSH2 0x559 JUMP JUMPDEST PUSH1 0x40 MLOAD PUSH2 0x348 SWAP2 SWAP1 PUSH2 0x178B JUMP JUMPDEST PUSH1 0x40 MLOAD DUP1 SWAP2 SUB SWAP1 RETURN JUMPDEST PUSH2 0x36B PUSH1 0x4 DUP1 CALLDATASIZE SUB DUP2 ADD SWAP1 PUSH2 0x366 SWAP2 SWAP1 PUSH2 0x1545 JUMP JUMPDEST PUSH2 0x56D JUMP JUMPDEST PUSH1 0x40 MLOAD PUSH2 0x378 SWAP2 SWAP1 PUSH2 0x178B JUMP JUMPDEST PUSH1 0x40 MLOAD DUP1 SWAP2 SUB SWAP1 RETURN JUMPDEST PUSH2 0x39B PUSH1 0x4 DUP1 CALLDATASIZE SUB DUP2 ADD SWAP1 PUSH2 0x396 SWAP2 SWAP1 PUSH2 0x1509 JUMP JUMPDEST PUSH2 0x581 JUMP JUMPDEST PUSH1 0x40 MLOAD PUSH2 0x3A8 SWAP2 SWAP1 PUSH2 0x1747 JUMP JUMPDEST PUSH1 0x40 MLOAD DUP1 SWAP2 SUB SWAP1 RETURN JUMPDEST PUSH2 0x3CB PUSH1 0x4 DUP1 CALLDATASIZE SUB DUP2 ADD SWAP1 PUSH2 0x3C6 SWAP2 SWAP1 PUSH2 0x1545 JUMP JUMPDEST PUSH2 0x59B JUMP JUMPDEST PUSH1 0x40 MLOAD PUSH2 0x3D9 SWAP3 SWAP2 SWAP1 PUSH2 0x17A6 JUMP JUMPDEST PUSH1 0x40 MLOAD DUP1 SWAP2 SUB SWAP1 RETURN JUMPDEST PUSH2 0x3FC PUSH1 0x4 DUP1 CALLDATASIZE SUB DUP2 ADD SWAP1 PUSH2 0x3F7 SWAP2 SWAP1 PUSH2 0x1509 JUMP JUMPDEST PUSH2 0x5B3 JUMP JUMPDEST PUSH1 0x40 MLOAD PUSH2 0x409 SWAP2 SWAP1 PUSH2 0x1747 JUMP JUMPDEST PUSH1 0x40 MLOAD DUP1 SWAP2 SUB SWAP1 RETURN JUMPDEST PUSH2 0x42C PUSH1 0x4 DUP1 CALLDATASIZE SUB DUP2 ADD SWAP1 PUSH2 0x427 SWAP2 SWAP1 PUSH2 0x1509 JUMP JUMPDEST PUSH2 0x5CD JUMP JUMPDEST PUSH1 0x40 MLOAD PUSH2 0x439 SWAP2 SWAP1 PUSH2 0x1747 JUMP JUMPDEST PUSH1 0x40 MLOAD DUP1 SWAP2 SUB SWAP1 RETURN JUMPDEST PUSH2 0x44A PUSH2 0x1465 JUMP JUMPDEST PUSH2 0x454 DUP4 DUP4 PUSH2 0x5E7 JUMP JUMPDEST SWAP1 POP SWAP3 SWAP2 POP POP JUMP JUMPDEST PUSH2 0x464 PUSH2 0x1465 JUMP JUMPDEST PUSH2 0x46D DUP3 PUSH2 0x69D JUMP JUMPDEST SWAP1 POP SWAP2 SWAP1 POP JUMP JUMPDEST PUSH1 0x0 PUSH2 0x480 DUP4 DUP4 PUSH2 0x757 JUMP JUMPDEST SWAP1 POP SWAP3 SWAP2 POP POP JUMP JUMPDEST PUSH1 0x0 PUSH2 0x493 DUP3 PUSH2 0x836 JUMP JUMPDEST SWAP1 POP SWAP2 SWAP1 POP JUMP JUMPDEST PUSH2 0x4A2 PUSH2 0x1465 JUMP JUMPDEST PUSH2 0x4AC DUP4 DUP4 PUSH2 0x8AE JUMP JUMPDEST SWAP1 POP SWAP3 SWAP2 POP POP JUMP JUMPDEST PUSH2 0x4BC PUSH2 0x1465 JUMP JUMPDEST PUSH2 0x4C6 DUP4 DUP4 PUSH2 0x9AC JUMP JUMPDEST SWAP1 POP SWAP3 SWAP2 POP POP JUMP JUMPDEST PUSH2 0x4D6 PUSH2 0x1465 JUMP JUMPDEST PUSH2 0x4E0 DUP4 DUP4 PUSH2 0xA99 JUMP JUMPDEST SWAP1 POP SWAP3 SWAP2 POP POP JUMP JUMPDEST PUSH2 0x4F0 PUSH2 0x1465 JUMP JUMPDEST PUSH2 0x4FA DUP4 DUP4 PUSH2 0xB82 JUMP JUMPDEST SWAP1 POP SWAP3 SWAP2 POP POP JUMP JUMPDEST PUSH2 0x50A PUSH2 0x1465 JUMP JUMPDEST PUSH2 0x513 DUP3 PUSH2 0xC38 JUMP JUMPDEST SWAP1 POP SWAP2 SWAP1 POP JUMP JUMPDEST PUSH2 0x522 PUSH2 0x1465 JUMP JUMPDEST PUSH2 0x52A PUSH2 0x1465 JUMP JUMPDEST PUSH2 0x534 DUP5 DUP5 PUSH2 0xCF6 JUMP JUMPDEST SWAP2 POP SWAP2 POP SWAP3 POP SWAP3 SWAP1 POP JUMP JUMPDEST PUSH2 0x547 PUSH2 0x1465 JUMP JUMPDEST PUSH2 0x551 DUP4 DUP4 PUSH2 0xE3C JUMP JUMPDEST SWAP1 POP SWAP3 SWAP2 POP POP JUMP JUMPDEST PUSH1 0x0 PUSH2 0x565 DUP4 DUP4 PUSH2 0xF6E JUMP JUMPDEST SWAP1 POP SWAP3 SWAP2 POP POP JUMP JUMPDEST PUSH1 0x0 PUSH2 0x579 DUP4 DUP4 PUSH2 0xF9F JUMP JUMPDEST SWAP1 POP SWAP3 SWAP2 POP POP JUMP JUMPDEST PUSH2 0x589 PUSH2 0x1465 JUMP JUMPDEST PUSH2 0x593 DUP4 DUP4 PUSH2 0xFEA JUMP JUMPDEST SWAP1 POP SWAP3 SWAP2 POP POP JUMP JUMPDEST PUSH1 0x0 DUP1 PUSH2 0x5A8 DUP5 DUP5 PUSH2 0x10E8 JUMP JUMPDEST SWAP2 POP SWAP2 POP SWAP3 POP SWAP3 SWAP1 POP JUMP JUMPDEST PUSH2 0x5BB PUSH2 0x1465 JUMP JUMPDEST PUSH2 0x5C5 DUP4 DUP4 PUSH2 0x110C JUMP JUMPDEST SWAP1 POP SWAP3 SWAP2 POP POP JUMP JUMPDEST PUSH2 0x5D5 PUSH2 0x1465 JUMP JUMPDEST PUSH2 0x5DF DUP4 DUP4 PUSH2 0x1263 JUMP JUMPDEST SWAP1 POP SWAP3 SWAP2 POP POP JUMP JUMPDEST PUSH2 0x5EF PUSH2 0x1465 JUMP JUMPDEST DUP3 PUSH1 0x0 DUP2 PUSH1 0x20 ADD MLOAD EQ ISZERO PUSH2 0x638 JUMPI PUSH1 0x40 MLOAD PUSH32 0x8C379A000000000000000000000000000000000000000000000000000000000 DUP2 MSTORE PUSH1 0x4 ADD PUSH2 0x62F SWAP1 PUSH2 0x1727 JUMP JUMPDEST PUSH1 0x40 MLOAD DUP1 SWAP2 SUB SWAP1 REVERT JUMPDEST DUP3 PUSH1 0x0 DUP2 PUSH1 0x20 ADD MLOAD EQ ISZERO PUSH2 0x681 JUMPI PUSH1 0x40 MLOAD PUSH32 0x8C379A000000000000000000000000000000000000000000000000000000000 DUP2 MSTORE PUSH1 0x4 ADD PUSH2 0x678 SWAP1 PUSH2 0x1727 JUMP JUMPDEST PUSH1 0x40 MLOAD DUP1 SWAP2 SUB SWAP1 REVERT JUMPDEST PUSH2 0x693 PUSH2 0x68E DUP7 DUP7 PUSH2 0xE3C JUMP JUMPDEST PUSH2 0x69D JUMP JUMPDEST SWAP3 POP POP POP SWAP3 SWAP2 POP POP JUMP JUMPDEST PUSH2 0x6A5 PUSH2 0x1465 JUMP JUMPDEST DUP2 PUSH1 0x0 DUP2 PUSH1 0x20 ADD MLOAD EQ ISZERO PUSH2 0x6EE JUMPI PUSH1 0x40 MLOAD PUSH32 0x8C379A000000000000000000000000000000000000000000000000000000000 DUP2 MSTORE PUSH1 0x4 ADD PUSH2 0x6E5 SWAP1 PUSH2 0x1727 JUMP JUMPDEST PUSH1 0x40 MLOAD DUP1 SWAP2 SUB SWAP1 REVERT JUMPDEST PUSH2 0x6F7 DUP4 PUSH2 0x836 JUMP JUMPDEST ISZERO PUSH2 0x74D JUMPI PUSH1 0x0 PUSH2 0x710 DUP5 PUSH1 0x0 ADD MLOAD DUP6 PUSH1 0x20 ADD MLOAD PUSH2 0xF9F JUMP JUMPDEST SWAP1 POP PUSH1 0x40 MLOAD DUP1 PUSH1 0x40 ADD PUSH1 0x40 MSTORE DUP1 DUP3 DUP7 PUSH1 0x0 ADD MLOAD PUSH2 0x72D SWAP2 SWAP1 PUSH2 0x185B JUMP JUMPDEST DUP2 MSTORE PUSH1 0x20 ADD DUP3 DUP7 PUSH1 0x20 ADD MLOAD PUSH2 0x742 SWAP2 SWAP1 PUSH2 0x185B JUMP JUMPDEST DUP2 MSTORE POP SWAP3 POP POP PUSH2 0x751 JUMP JUMPDEST DUP3 SWAP2 POP JUMPDEST POP SWAP2 SWAP1 POP JUMP JUMPDEST PUSH1 0x0 DUP3 PUSH1 0x0 DUP2 PUSH1 0x20 ADD MLOAD EQ ISZERO PUSH2 0x7A2 JUMPI PUSH1 0x40 MLOAD PUSH32 0x8C379A000000000000000000000000000000000000000000000000000000000 DUP2 MSTORE PUSH1 0x4 ADD PUSH2 0x799 SWAP1 PUSH2 0x1727 JUMP JUMPDEST PUSH1 0x40 MLOAD DUP1 SWAP2 SUB SWAP1 REVERT JUMPDEST DUP3 PUSH1 0x0 DUP2 PUSH1 0x20 ADD MLOAD EQ ISZERO PUSH2 0x7EB JUMPI PUSH1 0x40 MLOAD PUSH32 0x8C379A000000000000000000000000000000000000000000000000000000000 DUP2 MSTORE PUSH1 0x4 ADD PUSH2 0x7E2 SWAP1 PUSH2 0x1727 JUMP JUMPDEST PUSH1 0x40 MLOAD DUP1 SWAP2 SUB SWAP1 REVERT JUMPDEST PUSH2 0x7F3 PUSH2 0x1465 JUMP JUMPDEST PUSH2 0x7FB PUSH2 0x1465 JUMP JUMPDEST PUSH2 0x805 DUP8 DUP8 PUSH2 0xCF6 JUMP JUMPDEST DUP1 SWAP3 POP DUP2 SWAP4 POP POP POP DUP1 PUSH1 0x0 ADD MLOAD DUP3 PUSH1 0x0 ADD MLOAD LT PUSH2 0x827 JUMPI PUSH1 0x1 SWAP5 POP POP POP PUSH2 0x82E JUMP JUMPDEST PUSH1 0x0 SWAP5 POP POP POP JUMPDEST POP POP SWAP3 SWAP2 POP POP JUMP JUMPDEST PUSH1 0x0 DUP2 PUSH1 0x0 DUP2 PUSH1 0x20 ADD MLOAD EQ ISZERO PUSH2 0x881 JUMPI PUSH1 0x40 MLOAD PUSH32 0x8C379A000000000000000000000000000000000000000000000000000000000 DUP2 MSTORE PUSH1 0x4 ADD PUSH2 0x878 SWAP1 PUSH2 0x1727 JUMP JUMPDEST PUSH1 0x40 MLOAD DUP1 SWAP2 SUB SWAP1 REVERT JUMPDEST PUSH1 0x1 PUSH2 0x895 DUP5 PUSH1 0x0 ADD MLOAD DUP6 PUSH1 0x20 ADD MLOAD PUSH2 0xF9F JUMP JUMPDEST EQ PUSH2 0x8A3 JUMPI PUSH1 0x1 SWAP2 POP PUSH2 0x8A8 JUMP JUMPDEST PUSH1 0x0 SWAP2 POP JUMPDEST POP SWAP2 SWAP1 POP JUMP JUMPDEST PUSH2 0x8B6 PUSH2 0x1465 JUMP JUMPDEST DUP3 PUSH1 0x0 DUP2 PUSH1 0x20 ADD MLOAD EQ ISZERO PUSH2 0x8FF JUMPI PUSH1 0x40 MLOAD PUSH32 0x8C379A000000000000000000000000000000000000000000000000000000000 DUP2 MSTORE PUSH1 0x4 ADD PUSH2 0x8F6 SWAP1 PUSH2 0x1727 JUMP JUMPDEST PUSH1 0x40 MLOAD DUP1 SWAP2 SUB SWAP1 REVERT JUMPDEST DUP3 PUSH1 0x0 DUP2 PUSH1 0x20 ADD MLOAD EQ ISZERO PUSH2 0x948 JUMPI PUSH1 0x40 MLOAD PUSH32 0x8C379A000000000000000000000000000000000000000000000000000000000 DUP2 MSTORE PUSH1 0x4 ADD PUSH2 0x93F SWAP1 PUSH2 0x1727 JUMP JUMPDEST PUSH1 0x40 MLOAD DUP1 SWAP2 SUB SWAP1 REVERT JUMPDEST PUSH1 0x0 DUP5 PUSH1 0x0 ADD MLOAD EQ ISZERO PUSH2 0x990 JUMPI PUSH1 0x40 MLOAD PUSH32 0x8C379A000000000000000000000000000000000000000000000000000000000 DUP2 MSTORE PUSH1 0x4 ADD PUSH2 0x987 SWAP1 PUSH2 0x1727 JUMP JUMPDEST PUSH1 0x40 MLOAD DUP1 SWAP2 SUB SWAP1 REVERT JUMPDEST PUSH2 0x9A2 DUP6 PUSH2 0x99D DUP7 PUSH2 0xC38 JUMP JUMPDEST PUSH2 0x110C JUMP JUMPDEST SWAP3 POP POP POP SWAP3 SWAP2 POP POP JUMP JUMPDEST PUSH2 0x9B4 PUSH2 0x1465 JUMP JUMPDEST DUP3 PUSH1 0x0 DUP2 PUSH1 0x20 ADD MLOAD EQ ISZERO PUSH2 0x9FD JUMPI PUSH1 0x40 MLOAD PUSH32 0x8C379A000000000000000000000000000000000000000000000000000000000 DUP2 MSTORE PUSH1 0x4 ADD PUSH2 0x9F4 SWAP1 PUSH2 0x1727 JUMP JUMPDEST PUSH1 0x40 MLOAD DUP1 SWAP2 SUB SWAP1 REVERT JUMPDEST DUP3 PUSH1 0x0 DUP2 PUSH1 0x20 ADD MLOAD EQ ISZERO PUSH2 0xA46 JUMPI PUSH1 0x40 MLOAD PUSH32 0x8C379A000000000000000000000000000000000000000000000000000000000 DUP2 MSTORE PUSH1 0x4 ADD PUSH2 0xA3D SWAP1 PUSH2 0x1727 JUMP JUMPDEST PUSH1 0x40 MLOAD DUP1 SWAP2 SUB SWAP1 REVERT JUMPDEST PUSH1 0x40 MLOAD DUP1 PUSH1 0x40 ADD PUSH1 0x40 MSTORE DUP1 PUSH2 0xA6C DUP7 PUSH1 0x0 ADD MLOAD DUP9 PUSH1 0x0 ADD MLOAD PUSH2 0x1346 SWAP1 SWAP2 SWAP1 PUSH4 0xFFFFFFFF AND JUMP JUMPDEST DUP2 MSTORE PUSH1 0x20 ADD PUSH2 0xA8C DUP7 PUSH1 0x20 ADD MLOAD DUP9 PUSH1 0x20 ADD MLOAD PUSH2 0x1346 SWAP1 SWAP2 SWAP1 PUSH4 0xFFFFFFFF AND JUMP JUMPDEST DUP2 MSTORE POP SWAP3 POP POP POP SWAP3 SWAP2 POP POP JUMP JUMPDEST PUSH2 0xAA1 PUSH2 0x1465 JUMP JUMPDEST DUP3 PUSH1 0x0 DUP2 PUSH1 0x20 ADD MLOAD EQ ISZERO PUSH2 0xAEA JUMPI PUSH1 0x40 MLOAD PUSH32 0x8C379A000000000000000000000000000000000000000000000000000000000 DUP2 MSTORE PUSH1 0x4 ADD PUSH2 0xAE1 SWAP1 PUSH2 0x1727 JUMP JUMPDEST PUSH1 0x40 MLOAD DUP1 SWAP2 SUB SWAP1 REVERT JUMPDEST DUP3 PUSH1 0x0 DUP2 PUSH1 0x20 ADD MLOAD EQ ISZERO PUSH2 0xB33 JUMPI PUSH1 0x40 MLOAD PUSH32 0x8C379A000000000000000000000000000000000000000000000000000000000 DUP2 MSTORE PUSH1 0x4 ADD PUSH2 0xB2A SWAP1 PUSH2 0x1727 JUMP JUMPDEST PUSH1 0x40 MLOAD DUP1 SWAP2 SUB SWAP1 REVERT JUMPDEST PUSH2 0xB3D DUP6 DUP6 PUSH2 0xCF6 JUMP JUMPDEST DUP1 SWAP6 POP DUP2 SWAP7 POP POP POP PUSH1 0x40 MLOAD DUP1 PUSH1 0x40 ADD PUSH1 0x40 MSTORE DUP1 PUSH2 0xB6B DUP7 PUSH1 0x0 ADD MLOAD DUP9 PUSH1 0x0 ADD MLOAD PUSH2 0x13B3 SWAP1 SWAP2 SWAP1 PUSH4 0xFFFFFFFF AND JUMP JUMPDEST DUP2 MSTORE PUSH1 0x20 ADD DUP7 PUSH1 0x20 ADD MLOAD DUP2 MSTORE POP SWAP3 POP POP POP SWAP3 SWAP2 POP POP JUMP JUMPDEST PUSH2 0xB8A PUSH2 0x1465 JUMP JUMPDEST DUP3 PUSH1 0x0 DUP2 PUSH1 0x20 ADD MLOAD EQ ISZERO PUSH2 0xBD3 JUMPI PUSH1 0x40 MLOAD PUSH32 0x8C379A000000000000000000000000000000000000000000000000000000000 DUP2 MSTORE PUSH1 0x4 ADD PUSH2 0xBCA SWAP1 PUSH2 0x1727 JUMP JUMPDEST PUSH1 0x40 MLOAD DUP1 SWAP2 SUB SWAP1 REVERT JUMPDEST DUP3 PUSH1 0x0 DUP2 PUSH1 0x20 ADD MLOAD EQ ISZERO PUSH2 0xC1C JUMPI PUSH1 0x40 MLOAD PUSH32 0x8C379A000000000000000000000000000000000000000000000000000000000 DUP2 MSTORE PUSH1 0x4 ADD PUSH2 0xC13 SWAP1 PUSH2 0x1727 JUMP JUMPDEST PUSH1 0x40 MLOAD DUP1 SWAP2 SUB SWAP1 REVERT JUMPDEST PUSH2 0xC2E PUSH2 0xC29 DUP7 DUP7 PUSH2 0xA99 JUMP JUMPDEST PUSH2 0x69D JUMP JUMPDEST SWAP3 POP POP POP SWAP3 SWAP2 POP POP JUMP JUMPDEST PUSH2 0xC40 PUSH2 0x1465 JUMP JUMPDEST DUP2 PUSH1 0x0 DUP2 PUSH1 0x20 ADD MLOAD EQ ISZERO PUSH2 0xC89 JUMPI PUSH1 0x40 MLOAD PUSH32 0x8C379A000000000000000000000000000000000000000000000000000000000 DUP2 MSTORE PUSH1 0x4 ADD PUSH2 0xC80 SWAP1 PUSH2 0x1727 JUMP JUMPDEST PUSH1 0x40 MLOAD DUP1 SWAP2 SUB SWAP1 REVERT JUMPDEST PUSH1 0x0 DUP4 PUSH1 0x0 ADD MLOAD EQ ISZERO PUSH2 0xCD1 JUMPI PUSH1 0x40 MLOAD PUSH32 0x8C379A000000000000000000000000000000000000000000000000000000000 DUP2 MSTORE PUSH1 0x4 ADD PUSH2 0xCC8 SWAP1 PUSH2 0x1727 JUMP JUMPDEST PUSH1 0x40 MLOAD DUP1 SWAP2 SUB SWAP1 REVERT JUMPDEST PUSH1 0x40 MLOAD DUP1 PUSH1 0x40 ADD PUSH1 0x40 MSTORE DUP1 DUP5 PUSH1 0x20 ADD MLOAD DUP2 MSTORE PUSH1 0x20 ADD DUP5 PUSH1 0x0 ADD MLOAD DUP2 MSTORE POP SWAP2 POP POP SWAP2 SWAP1 POP JUMP JUMPDEST PUSH2 0xCFE PUSH2 0x1465 JUMP JUMPDEST PUSH2 0xD06 PUSH2 0x1465 JUMP JUMPDEST DUP4 PUSH1 0x0 DUP2 PUSH1 0x20 ADD MLOAD EQ ISZERO PUSH2 0xD4F JUMPI PUSH1 0x40 MLOAD PUSH32 0x8C379A000000000000000000000000000000000000000000000000000000000 DUP2 MSTORE PUSH1 0x4 ADD PUSH2 0xD46 SWAP1 PUSH2 0x1727 JUMP JUMPDEST PUSH1 0x40 MLOAD DUP1 SWAP2 SUB SWAP1 REVERT JUMPDEST DUP4 PUSH1 0x0 DUP2 PUSH1 0x20 ADD MLOAD EQ ISZERO PUSH2 0xD98 JUMPI PUSH1 0x40 MLOAD PUSH32 0x8C379A000000000000000000000000000000000000000000000000000000000 DUP2 MSTORE PUSH1 0x4 ADD PUSH2 0xD8F SWAP1 PUSH2 0x1727 JUMP JUMPDEST PUSH1 0x40 MLOAD DUP1 SWAP2 SUB SWAP1 REVERT JUMPDEST PUSH1 0x0 PUSH2 0xDAC DUP8 PUSH1 0x20 ADD MLOAD DUP8 PUSH1 0x20 ADD MLOAD PUSH2 0xF6E JUMP JUMPDEST SWAP1 POP PUSH1 0x0 PUSH2 0xDD6 DUP9 PUSH1 0x0 ADD MLOAD DUP10 PUSH1 0x20 ADD MLOAD DUP5 PUSH2 0xDC8 SWAP2 SWAP1 PUSH2 0x185B JUMP JUMPDEST PUSH2 0x1346 SWAP1 SWAP2 SWAP1 PUSH4 0xFFFFFFFF AND JUMP JUMPDEST SWAP1 POP PUSH1 0x0 PUSH2 0xE00 DUP9 PUSH1 0x0 ADD MLOAD DUP10 PUSH1 0x20 ADD MLOAD DUP6 PUSH2 0xDF2 SWAP2 SWAP1 PUSH2 0x185B JUMP JUMPDEST PUSH2 0x1346 SWAP1 SWAP2 SWAP1 PUSH4 0xFFFFFFFF AND JUMP JUMPDEST SWAP1 POP PUSH1 0x40 MLOAD DUP1 PUSH1 0x40 ADD PUSH1 0x40 MSTORE DUP1 DUP4 DUP2 MSTORE PUSH1 0x20 ADD DUP5 DUP2 MSTORE POP PUSH1 0x40 MLOAD DUP1 PUSH1 0x40 ADD PUSH1 0x40 MSTORE DUP1 DUP4 DUP2 MSTORE PUSH1 0x20 ADD DUP6 DUP2 MSTORE POP SWAP7 POP SWAP7 POP POP POP POP POP POP SWAP3 POP SWAP3 SWAP1 POP JUMP JUMPDEST PUSH2 0xE44 PUSH2 0x1465 JUMP JUMPDEST DUP3 PUSH1 0x0 DUP2 PUSH1 0x20 ADD MLOAD EQ ISZERO PUSH2 0xE8D JUMPI PUSH1 0x40 MLOAD PUSH32 0x8C379A000000000000000000000000000000000000000000000000000000000 DUP2 MSTORE PUSH1 0x4 ADD PUSH2 0xE84 SWAP1 PUSH2 0x1727 JUMP JUMPDEST PUSH1 0x40 MLOAD DUP1 SWAP2 SUB SWAP1 REVERT JUMPDEST DUP3 PUSH1 0x0 DUP2 PUSH1 0x20 ADD MLOAD EQ ISZERO PUSH2 0xED6 JUMPI PUSH1 0x40 MLOAD PUSH32 0x8C379A000000000000000000000000000000000000000000000000000000000 DUP2 MSTORE PUSH1 0x4 ADD PUSH2 0xECD SWAP1 PUSH2 0x1727 JUMP JUMPDEST PUSH1 0x40 MLOAD DUP1 SWAP2 SUB SWAP1 REVERT JUMPDEST PUSH2 0xEE0 DUP6 DUP6 PUSH2 0x757 JUMP JUMPDEST PUSH2 0xF1F JUMPI PUSH1 0x40 MLOAD PUSH32 0x8C379A000000000000000000000000000000000000000000000000000000000 DUP2 MSTORE PUSH1 0x4 ADD PUSH2 0xF16 SWAP1 PUSH2 0x1707 JUMP JUMPDEST PUSH1 0x40 MLOAD DUP1 SWAP2 SUB SWAP1 REVERT JUMPDEST PUSH2 0xF29 DUP6 DUP6 PUSH2 0xCF6 JUMP JUMPDEST DUP1 SWAP6 POP DUP2 SWAP7 POP POP POP PUSH1 0x40 MLOAD DUP1 PUSH1 0x40 ADD PUSH1 0x40 MSTORE DUP1 PUSH2 0xF57 DUP7 PUSH1 0x0 ADD MLOAD DUP9 PUSH1 0x0 ADD MLOAD PUSH2 0x140C SWAP1 SWAP2 SWAP1 PUSH4 0xFFFFFFFF AND JUMP JUMPDEST DUP2 MSTORE PUSH1 0x20 ADD DUP7 PUSH1 0x20 ADD MLOAD DUP2 MSTORE POP SWAP3 POP POP POP SWAP3 SWAP2 POP POP JUMP JUMPDEST PUSH1 0x0 PUSH2 0xF97 DUP3 PUSH2 0xF7E DUP6 DUP6 PUSH2 0xF9F JUMP JUMPDEST DUP6 PUSH2 0xF89 SWAP2 SWAP1 PUSH2 0x185B JUMP JUMPDEST PUSH2 0x1346 SWAP1 SWAP2 SWAP1 PUSH4 0xFFFFFFFF AND JUMP JUMPDEST SWAP1 POP SWAP3 SWAP2 POP POP JUMP JUMPDEST PUSH1 0x0 PUSH2 0xFAB DUP4 DUP4 PUSH2 0x10E8 JUMP JUMPDEST DUP1 SWAP4 POP DUP2 SWAP5 POP POP POP JUMPDEST PUSH1 0x0 DUP3 EQ PUSH2 0xFE1 JUMPI DUP2 DUP4 PUSH2 0xFC8 SWAP2 SWAP1 PUSH2 0x1961 JUMP JUMPDEST SWAP3 POP PUSH2 0xFD4 DUP4 DUP4 PUSH2 0x10E8 JUMP JUMPDEST DUP1 SWAP4 POP DUP2 SWAP5 POP POP POP PUSH2 0xFB4 JUMP JUMPDEST DUP3 SWAP1 POP SWAP3 SWAP2 POP POP JUMP JUMPDEST PUSH2 0xFF2 PUSH2 0x1465 JUMP JUMPDEST DUP3 PUSH1 0x0 DUP2 PUSH1 0x20 ADD MLOAD EQ ISZERO PUSH2 0x103B JUMPI PUSH1 0x40 MLOAD PUSH32 0x8C379A000000000000000000000000000000000000000000000000000000000 DUP2 MSTORE PUSH1 0x4 ADD PUSH2 0x1032 SWAP1 PUSH2 0x1727 JUMP JUMPDEST PUSH1 0x40 MLOAD DUP1 SWAP2 SUB SWAP1 REVERT JUMPDEST DUP3 PUSH1 0x0 DUP2 PUSH1 0x20 ADD MLOAD EQ ISZERO PUSH2 0x1084 JUMPI PUSH1 0x40 MLOAD PUSH32 0x8C379A000000000000000000000000000000000000000000000000000000000 DUP2 MSTORE PUSH1 0x4 ADD PUSH2 0x107B SWAP1 PUSH2 0x1727 JUMP JUMPDEST PUSH1 0x40 MLOAD DUP1 SWAP2 SUB SWAP1 REVERT JUMPDEST PUSH1 0x0 DUP5 PUSH1 0x0 ADD MLOAD EQ ISZERO PUSH2 0x10CC JUMPI PUSH1 0x40 MLOAD PUSH32 0x8C379A000000000000000000000000000000000000000000000000000000000 DUP2 MSTORE PUSH1 0x4 ADD PUSH2 0x10C3 SWAP1 PUSH2 0x1727 JUMP JUMPDEST PUSH1 0x40 MLOAD DUP1 SWAP2 SUB SWAP1 REVERT JUMPDEST PUSH2 0x10DE DUP6 PUSH2 0x10D9 DUP7 PUSH2 0xC38 JUMP JUMPDEST PUSH2 0x9AC JUMP JUMPDEST SWAP3 POP POP POP SWAP3 SWAP2 POP POP JUMP JUMPDEST PUSH1 0x0 DUP1 DUP3 DUP5 GT ISZERO PUSH2 0x10FE JUMPI DUP4 DUP4 SWAP2 POP SWAP2 POP PUSH2 0x1105 JUMP JUMPDEST DUP3 DUP5 SWAP2 POP SWAP2 POP JUMPDEST SWAP3 POP SWAP3 SWAP1 POP JUMP JUMPDEST PUSH2 0x1114 PUSH2 0x1465 JUMP JUMPDEST DUP3 PUSH1 0x0 DUP2 PUSH1 0x20 ADD MLOAD EQ ISZERO PUSH2 0x115D JUMPI PUSH1 0x40 MLOAD PUSH32 0x8C379A000000000000000000000000000000000000000000000000000000000 DUP2 MSTORE PUSH1 0x4 ADD PUSH2 0x1154 SWAP1 PUSH2 0x1727 JUMP JUMPDEST PUSH1 0x40 MLOAD DUP1 SWAP2 SUB SWAP1 REVERT JUMPDEST DUP3 PUSH1 0x0 DUP2 PUSH1 0x20 ADD MLOAD EQ ISZERO PUSH2 0x11A6 JUMPI PUSH1 0x40 MLOAD PUSH32 0x8C379A000000000000000000000000000000000000000000000000000000000 DUP2 MSTORE PUSH1 0x4 ADD PUSH2 0x119D SWAP1 PUSH2 0x1727 JUMP JUMPDEST PUSH1 0x40 MLOAD DUP1 SWAP2 SUB SWAP1 REVERT JUMPDEST PUSH2 0x11AF DUP6 PUSH2 0x69D JUMP JUMPDEST SWAP5 POP PUSH2 0x11BA DUP5 PUSH2 0x69D JUMP JUMPDEST SWAP4 POP PUSH1 0x0 PUSH2 0x11E3 PUSH1 0x40 MLOAD DUP1 PUSH1 0x40 ADD PUSH1 0x40 MSTORE DUP1 DUP9 PUSH1 0x0 ADD MLOAD DUP2 MSTORE PUSH1 0x20 ADD DUP8 PUSH1 0x20 ADD MLOAD DUP2 MSTORE POP PUSH2 0x69D JUMP JUMPDEST SWAP1 POP PUSH1 0x0 PUSH2 0x120C PUSH1 0x40 MLOAD DUP1 PUSH1 0x40 ADD PUSH1 0x40 MSTORE DUP1 DUP9 PUSH1 0x0 ADD MLOAD DUP2 MSTORE PUSH1 0x20 ADD DUP10 PUSH1 0x20 ADD MLOAD DUP2 MSTORE POP PUSH2 0x69D JUMP JUMPDEST SWAP1 POP PUSH1 0x40 MLOAD DUP1 PUSH1 0x40 ADD PUSH1 0x40 MSTORE DUP1 PUSH2 0x1234 DUP4 PUSH1 0x0 ADD MLOAD DUP6 PUSH1 0x0 ADD MLOAD PUSH2 0x1346 SWAP1 SWAP2 SWAP1 PUSH4 0xFFFFFFFF AND JUMP JUMPDEST DUP2 MSTORE PUSH1 0x20 ADD PUSH2 0x1254 DUP4 PUSH1 0x20 ADD MLOAD DUP6 PUSH1 0x20 ADD MLOAD PUSH2 0x1346 SWAP1 SWAP2 SWAP1 PUSH4 0xFFFFFFFF AND JUMP JUMPDEST DUP2 MSTORE POP SWAP5 POP POP POP POP POP SWAP3 SWAP2 POP POP JUMP JUMPDEST PUSH2 0x126B PUSH2 0x1465 JUMP JUMPDEST DUP3 PUSH1 0x0 DUP2 PUSH1 0x20 ADD MLOAD EQ ISZERO PUSH2 0x12B4 JUMPI PUSH1 0x40 MLOAD PUSH32 0x8C379A000000000000000000000000000000000000000000000000000000000 DUP2 MSTORE PUSH1 0x4 ADD PUSH2 0x12AB SWAP1 PUSH2 0x1727 JUMP JUMPDEST PUSH1 0x40 MLOAD DUP1 SWAP2 SUB SWAP1 REVERT JUMPDEST DUP3 PUSH1 0x0 DUP2 PUSH1 0x20 ADD MLOAD EQ ISZERO PUSH2 0x12FD JUMPI PUSH1 0x40 MLOAD PUSH32 0x8C379A000000000000000000000000000000000000000000000000000000000 DUP2 MSTORE PUSH1 0x4 ADD PUSH2 0x12F4 SWAP1 PUSH2 0x1727 JUMP JUMPDEST PUSH1 0x40 MLOAD DUP1 SWAP2 SUB SWAP1 REVERT JUMPDEST PUSH2 0x1305 PUSH2 0x1465 JUMP JUMPDEST PUSH2 0x130D PUSH2 0x1465 JUMP JUMPDEST PUSH2 0x1317 DUP8 DUP8 PUSH2 0xCF6 JUMP JUMPDEST DUP1 SWAP3 POP DUP2 SWAP4 POP POP POP DUP1 PUSH1 0x0 ADD MLOAD DUP3 PUSH1 0x0 ADD MLOAD LT PUSH2 0x1338 JUMPI DUP7 SWAP5 POP POP POP PUSH2 0x133E JUMP JUMPDEST DUP6 SWAP5 POP POP POP JUMPDEST POP POP SWAP3 SWAP2 POP POP JUMP JUMPDEST PUSH1 0x0 DUP1 DUP3 EQ DUP1 PUSH2 0x136E JUMPI POP DUP3 DUP3 DUP4 DUP6 PUSH2 0x135F SWAP2 SWAP1 PUSH2 0x188C JUMP JUMPDEST SWAP3 POP DUP3 PUSH2 0x136C SWAP2 SWAP1 PUSH2 0x185B JUMP JUMPDEST EQ JUMPDEST PUSH2 0x13AD JUMPI PUSH1 0x40 MLOAD PUSH32 0x8C379A000000000000000000000000000000000000000000000000000000000 DUP2 MSTORE PUSH1 0x4 ADD PUSH2 0x13A4 SWAP1 PUSH2 0x16C7 JUMP JUMPDEST PUSH1 0x40 MLOAD DUP1 SWAP2 SUB SWAP1 REVERT JUMPDEST SWAP3 SWAP2 POP POP JUMP JUMPDEST PUSH1 0x0 DUP3 DUP3 DUP5 PUSH2 0x13C2 SWAP2 SWAP1 PUSH2 0x1805 JUMP JUMPDEST SWAP2 POP DUP2 LT ISZERO PUSH2 0x1406 JUMPI PUSH1 0x40 MLOAD PUSH32 0x8C379A000000000000000000000000000000000000000000000000000000000 DUP2 MSTORE PUSH1 0x4 ADD PUSH2 0x13FD SWAP1 PUSH2 0x16E7 JUMP JUMPDEST PUSH1 0x40 MLOAD DUP1 SWAP2 SUB SWAP1 REVERT JUMPDEST SWAP3 SWAP2 POP POP JUMP JUMPDEST PUSH1 0x0 DUP3 DUP3 DUP5 PUSH2 0x141B SWAP2 SWAP1 PUSH2 0x18E6 JUMP JUMPDEST SWAP2 POP DUP2 GT ISZERO PUSH2 0x145F JUMPI PUSH1 0x40 MLOAD PUSH32 0x8C379A000000000000000000000000000000000000000000000000000000000 DUP2 MSTORE PUSH1 0x4 ADD PUSH2 0x1456 SWAP1 PUSH2 0x16A7 JUMP JUMPDEST PUSH1 0x40 MLOAD DUP1 SWAP2 SUB SWAP1 REVERT JUMPDEST SWAP3 SWAP2 POP POP JUMP JUMPDEST PUSH1 0x40 MLOAD DUP1 PUSH1 0x40 ADD PUSH1 0x40 MSTORE DUP1 PUSH1 0x0 DUP2 MSTORE PUSH1 0x20 ADD PUSH1 0x0 DUP2 MSTORE POP SWAP1 JUMP JUMPDEST PUSH1 0x0 PUSH1 0x40 DUP3 DUP5 SUB SLT ISZERO PUSH2 0x1491 JUMPI PUSH1 0x0 DUP1 REVERT JUMPDEST PUSH2 0x149B PUSH1 0x40 PUSH2 0x17CF JUMP JUMPDEST SWAP1 POP PUSH1 0x0 PUSH2 0x14AB DUP5 DUP3 DUP6 ADD PUSH2 0x14CB JUMP JUMPDEST PUSH1 0x0 DUP4 ADD MSTORE POP PUSH1 0x20 PUSH2 0x14BF DUP5 DUP3 DUP6 ADD PUSH2 0x14CB JUMP JUMPDEST PUSH1 0x20 DUP4 ADD MSTORE POP SWAP3 SWAP2 POP POP JUMP JUMPDEST PUSH1 0x0 DUP2 CALLDATALOAD SWAP1 POP PUSH2 0x14DA DUP2 PUSH2 0x1AFD JUMP JUMPDEST SWAP3 SWAP2 POP POP JUMP JUMPDEST PUSH1 0x0 PUSH1 0x40 DUP3 DUP5 SUB SLT ISZERO PUSH2 0x14F2 JUMPI PUSH1 0x0 DUP1 REVERT JUMPDEST PUSH1 0x0 PUSH2 0x1500 DUP5 DUP3 DUP6 ADD PUSH2 0x147F JUMP JUMPDEST SWAP2 POP POP SWAP3 SWAP2 POP POP JUMP JUMPDEST PUSH1 0x0 DUP1 PUSH1 0x80 DUP4 DUP6 SUB SLT ISZERO PUSH2 0x151C JUMPI PUSH1 0x0 DUP1 REVERT JUMPDEST PUSH1 0x0 PUSH2 0x152A DUP6 DUP3 DUP7 ADD PUSH2 0x147F JUMP JUMPDEST SWAP3 POP POP PUSH1 0x40 PUSH2 0x153B DUP6 DUP3 DUP7 ADD PUSH2 0x147F JUMP JUMPDEST SWAP2 POP POP SWAP3 POP SWAP3 SWAP1 POP JUMP JUMPDEST PUSH1 0x0 DUP1 PUSH1 0x40 DUP4 DUP6 SUB SLT ISZERO PUSH2 0x1558 JUMPI PUSH1 0x0 DUP1 REVERT JUMPDEST PUSH1 0x0 PUSH2 0x1566 DUP6 DUP3 DUP7 ADD PUSH2 0x14CB JUMP JUMPDEST SWAP3 POP POP PUSH1 0x20 PUSH2 0x1577 DUP6 DUP3 DUP7 ADD PUSH2 0x14CB JUMP JUMPDEST SWAP2 POP POP SWAP3 POP SWAP3 SWAP1 POP JUMP JUMPDEST PUSH2 0x158A DUP2 PUSH2 0x191A JUMP JUMPDEST DUP3 MSTORE POP POP JUMP JUMPDEST PUSH1 0x0 PUSH2 0x159D PUSH1 0x15 DUP4 PUSH2 0x17F4 JUMP JUMPDEST SWAP2 POP PUSH2 0x15A8 DUP3 PUSH2 0x1A30 JUMP JUMPDEST PUSH1 0x20 DUP3 ADD SWAP1 POP SWAP2 SWAP1 POP JUMP JUMPDEST PUSH1 0x0 PUSH2 0x15C0 PUSH1 0x14 DUP4 PUSH2 0x17F4 JUMP JUMPDEST SWAP2 POP PUSH2 0x15CB DUP3 PUSH2 0x1A59 JUMP JUMPDEST PUSH1 0x20 DUP3 ADD SWAP1 POP SWAP2 SWAP1 POP JUMP JUMPDEST PUSH1 0x0 PUSH2 0x15E3 PUSH1 0x14 DUP4 PUSH2 0x17F4 JUMP JUMPDEST SWAP2 POP PUSH2 0x15EE DUP3 PUSH2 0x1A82 JUMP JUMPDEST PUSH1 0x20 DUP3 ADD SWAP1 POP SWAP2 SWAP1 POP JUMP JUMPDEST PUSH1 0x0 PUSH2 0x1606 PUSH1 0x10 DUP4 PUSH2 0x17F4 JUMP JUMPDEST SWAP2 POP PUSH2 0x1611 DUP3 PUSH2 0x1AAB JUMP JUMPDEST PUSH1 0x20 DUP3 ADD SWAP1 POP SWAP2 SWAP1 POP JUMP JUMPDEST PUSH1 0x0 PUSH2 0x1629 PUSH1 0x17 DUP4 PUSH2 0x17F4 JUMP JUMPDEST SWAP2 POP PUSH2 0x1634 DUP3 PUSH2 0x1AD4 JUMP JUMPDEST PUSH1 0x20 DUP3 ADD SWAP1 POP SWAP2 SWAP1 POP JUMP JUMPDEST PUSH1 0x40 DUP3 ADD PUSH1 0x0 DUP3 ADD MLOAD PUSH2 0x1655 PUSH1 0x0 DUP6 ADD DUP3 PUSH2 0x166E JUMP JUMPDEST POP PUSH1 0x20 DUP3 ADD MLOAD PUSH2 0x1668 PUSH1 0x20 DUP6 ADD DUP3 PUSH2 0x166E JUMP JUMPDEST POP POP POP POP JUMP JUMPDEST PUSH2 0x1677 DUP2 PUSH2 0x1926 JUMP JUMPDEST DUP3 MSTORE POP POP JUMP JUMPDEST PUSH2 0x1686 DUP2 PUSH2 0x1926 JUMP JUMPDEST DUP3 MSTORE POP POP JUMP JUMPDEST PUSH1 0x0 PUSH1 0x20 DUP3 ADD SWAP1 POP PUSH2 0x16A1 PUSH1 0x0 DUP4 ADD DUP5 PUSH2 0x1581 JUMP JUMPDEST SWAP3 SWAP2 POP POP JUMP JUMPDEST PUSH1 0x0 PUSH1 0x20 DUP3 ADD SWAP1 POP DUP2 DUP2 SUB PUSH1 0x0 DUP4 ADD MSTORE PUSH2 0x16C0 DUP2 PUSH2 0x1590 JUMP JUMPDEST SWAP1 POP SWAP2 SWAP1 POP JUMP JUMPDEST PUSH1 0x0 PUSH1 0x20 DUP3 ADD SWAP1 POP DUP2 DUP2 SUB PUSH1 0x0 DUP4 ADD MSTORE PUSH2 0x16E0 DUP2 PUSH2 0x15B3 JUMP JUMPDEST SWAP1 POP SWAP2 SWAP1 POP JUMP JUMPDEST PUSH1 0x0 PUSH1 0x20 DUP3 ADD SWAP1 POP DUP2 DUP2 SUB PUSH1 0x0 DUP4 ADD MSTORE PUSH2 0x1700 DUP2 PUSH2 0x15D6 JUMP JUMPDEST SWAP1 POP SWAP2 SWAP1 POP JUMP JUMPDEST PUSH1 0x0 PUSH1 0x20 DUP3 ADD SWAP1 POP DUP2 DUP2 SUB PUSH1 0x0 DUP4 ADD MSTORE PUSH2 0x1720 DUP2 PUSH2 0x15F9 JUMP JUMPDEST SWAP1 POP SWAP2 SWAP1 POP JUMP JUMPDEST PUSH1 0x0 PUSH1 0x20 DUP3 ADD SWAP1 POP DUP2 DUP2 SUB PUSH1 0x0 DUP4 ADD MSTORE PUSH2 0x1740 DUP2 PUSH2 0x161C JUMP JUMPDEST SWAP1 POP SWAP2 SWAP1 POP JUMP JUMPDEST PUSH1 0x0 PUSH1 0x40 DUP3 ADD SWAP1 POP PUSH2 0x175C PUSH1 0x0 DUP4 ADD DUP5 PUSH2 0x163F JUMP JUMPDEST SWAP3 SWAP2 POP POP JUMP JUMPDEST PUSH1 0x0 PUSH1 0x80 DUP3 ADD SWAP1 POP PUSH2 0x1777 PUSH1 0x0 DUP4 ADD DUP6 PUSH2 0x163F JUMP JUMPDEST PUSH2 0x1784 PUSH1 0x40 DUP4 ADD DUP5 PUSH2 0x163F JUMP JUMPDEST SWAP4 SWAP3 POP POP POP JUMP JUMPDEST PUSH1 0x0 PUSH1 0x20 DUP3 ADD SWAP1 POP PUSH2 0x17A0 PUSH1 0x0 DUP4 ADD DUP5 PUSH2 0x167D JUMP JUMPDEST SWAP3 SWAP2 POP POP JUMP JUMPDEST PUSH1 0x0 PUSH1 0x40 DUP3 ADD SWAP1 POP PUSH2 0x17BB PUSH1 0x0 DUP4 ADD DUP6 PUSH2 0x167D JUMP JUMPDEST PUSH2 0x17C8 PUSH1 0x20 DUP4 ADD DUP5 PUSH2 0x167D JUMP JUMPDEST SWAP4 SWAP3 POP POP POP JUMP JUMPDEST PUSH1 0x0 PUSH2 0x17D9 PUSH2 0x17EA JUMP JUMPDEST SWAP1 POP PUSH2 0x17E5 DUP3 DUP3 PUSH2 0x1930 JUMP JUMPDEST SWAP2 SWAP1 POP JUMP JUMPDEST PUSH1 0x0 PUSH1 0x40 MLOAD SWAP1 POP SWAP1 JUMP JUMPDEST PUSH1 0x0 DUP3 DUP3 MSTORE PUSH1 0x20 DUP3 ADD SWAP1 POP SWAP3 SWAP2 POP POP JUMP JUMPDEST PUSH1 0x0 PUSH2 0x1810 DUP3 PUSH2 0x1926 JUMP JUMPDEST SWAP2 POP PUSH2 0x181B DUP4 PUSH2 0x1926 JUMP JUMPDEST SWAP3 POP DUP3 PUSH32 0xFFFFFFFFFFFFFFFFFFFFFFFFFFFFFFFFFFFFFFFFFFFFFFFFFFFFFFFFFFFFFFFF SUB DUP3 GT ISZERO PUSH2 0x1850 JUMPI PUSH2 0x184F PUSH2 0x1992 JUMP JUMPDEST JUMPDEST DUP3 DUP3 ADD SWAP1 POP SWAP3 SWAP2 POP POP JUMP JUMPDEST PUSH1 0x0 PUSH2 0x1866 DUP3 PUSH2 0x1926 JUMP JUMPDEST SWAP2 POP PUSH2 0x1871 DUP4 PUSH2 0x1926 JUMP JUMPDEST SWAP3 POP DUP3 PUSH2 0x1881 JUMPI PUSH2 0x1880 PUSH2 0x19C1 JUMP JUMPDEST JUMPDEST DUP3 DUP3 DIV SWAP1 POP SWAP3 SWAP2 POP POP JUMP JUMPDEST PUSH1 0x0 PUSH2 0x1897 DUP3 PUSH2 0x1926 JUMP JUMPDEST SWAP2 POP PUSH2 0x18A2 DUP4 PUSH2 0x1926 JUMP JUMPDEST SWAP3 POP DUP2 PUSH32 0xFFFFFFFFFFFFFFFFFFFFFFFFFFFFFFFFFFFFFFFFFFFFFFFFFFFFFFFFFFFFFFFF DIV DUP4 GT DUP3 ISZERO ISZERO AND ISZERO PUSH2 0x18DB JUMPI PUSH2 0x18DA PUSH2 0x1992 JUMP JUMPDEST JUMPDEST DUP3 DUP3 MUL SWAP1 POP SWAP3 SWAP2 POP POP JUMP JUMPDEST PUSH1 0x0 PUSH2 0x18F1 DUP3 PUSH2 0x1926 JUMP JUMPDEST SWAP2 POP PUSH2 0x18FC DUP4 PUSH2 0x1926 JUMP JUMPDEST SWAP3 POP DUP3 DUP3 LT ISZERO PUSH2 0x190F JUMPI PUSH2 0x190E PUSH2 0x1992 JUMP JUMPDEST JUMPDEST DUP3 DUP3 SUB SWAP1 POP SWAP3 SWAP2 POP POP JUMP JUMPDEST PUSH1 0x0 DUP2 ISZERO ISZERO SWAP1 POP SWAP2 SWAP1 POP JUMP JUMPDEST PUSH1 0x0 DUP2 SWAP1 POP SWAP2 SWAP1 POP JUMP JUMPDEST PUSH2 0x1939 DUP3 PUSH2 0x1A1F JUMP JUMPDEST DUP2 ADD DUP2 DUP2 LT PUSH8 0xFFFFFFFFFFFFFFFF DUP3 GT OR ISZERO PUSH2 0x1958 JUMPI PUSH2 0x1957 PUSH2 0x19F0 JUMP JUMPDEST JUMPDEST DUP1 PUSH1 0x40 MSTORE POP POP POP JUMP JUMPDEST PUSH1 0x0 PUSH2 0x196C DUP3 PUSH2 0x1926 JUMP JUMPDEST SWAP2 POP PUSH2 0x1977 DUP4 PUSH2 0x1926 JUMP JUMPDEST SWAP3 POP DUP3 PUSH2 0x1987 JUMPI PUSH2 0x1986 PUSH2 0x19C1 JUMP JUMPDEST JUMPDEST DUP3 DUP3 MOD SWAP1 POP SWAP3 SWAP2 POP POP JUMP JUMPDEST PUSH32 0x4E487B7100000000000000000000000000000000000000000000000000000000 PUSH1 0x0 MSTORE PUSH1 0x11 PUSH1 0x4 MSTORE PUSH1 0x24 PUSH1 0x0 REVERT JUMPDEST PUSH32 0x4E487B7100000000000000000000000000000000000000000000000000000000 PUSH1 0x0 MSTORE PUSH1 0x12 PUSH1 0x4 MSTORE PUSH1 0x24 PUSH1 0x0 REVERT JUMPDEST PUSH32 0x4E487B7100000000000000000000000000000000000000000000000000000000 PUSH1 0x0 MSTORE PUSH1 0x41 PUSH1 0x4 MSTORE PUSH1 0x24 PUSH1 0x0 REVERT JUMPDEST PUSH1 0x0 PUSH1 0x1F NOT PUSH1 0x1F DUP4 ADD AND SWAP1 POP SWAP2 SWAP1 POP JUMP JUMPDEST PUSH32 0x64732D6D6174682D7375622D756E646572666C6F770000000000000000000000 PUSH1 0x0 DUP3 ADD MSTORE POP JUMP JUMPDEST PUSH32 0x64732D6D6174682D6D756C2D6F766572666C6F77000000000000000000000000 PUSH1 0x0 DUP3 ADD MSTORE POP JUMP JUMPDEST PUSH32 0x64732D6D6174682D6164642D6F766572666C6F77000000000000000000000000 PUSH1 0x0 DUP3 ADD MSTORE POP JUMP JUMPDEST PUSH32 0x5475706C653A20556E646572666C6F7700000000000000000000000000000000 PUSH1 0x0 DUP3 ADD MSTORE POP JUMP JUMPDEST PUSH32 0x64656E6F6D696E61746F722063616E6E6F742062652030000000000000000000 PUSH1 0x0 DUP3 ADD MSTORE POP JUMP JUMPDEST PUSH2 0x1B06 DUP2 PUSH2 0x1926 JUMP JUMPDEST DUP2 EQ PUSH2 0x1B11 JUMPI PUSH1 0x0 DUP1 REVERT JUMPDEST POP JUMP INVALID LOG2 PUSH5 0x6970667358 0x22 SLT KECCAK256 DUP10 SWAP6 BYTE SWAP11 LOG0 0x24 SIGNEXTEND SWAP11 XOR SLT EXP DIFFICULTY 0xD7 CALLDATALOAD SWAP16 0xB1 SELFBALANCE 0x2C SWAP3 SLOAD EXTCODECOPY 0x29 0xDF 0x4D 0xE6 0x4B 0xC9 DUP9 AND SLT 0xE7 0x22 PUSH5 0x736F6C6343 STOP ADDMOD DIV STOP CALLER "
		},
		"gasEstimates": {
			"creation": {
				"codeDepositCost": "1397200",
				"executionCost": "1458",
				"totalCost": "1398658"
			},
			"external": {
				"_abbreviatable((uint256,uint256))": "infinite",
				"_abbreviate((uint256,uint256))": "infinite",
				"_addTuple((uint256,uint256),(uint256,uint256))": "infinite",
				"_biggerTuple((uint256,uint256),(uint256,uint256))": "infinite",
				"_commonDenominator((uint256,uint256),(uint256,uint256))": "infinite",
				"_divideTuple((uint256,uint256),(uint256,uint256))": "infinite",
				"_gcd(uint256,uint256)": "infinite",
				"_isbiggerTuple((uint256,uint256),(uint256,uint256))": "infinite",
				"_lcm(uint256,uint256)": "infinite",
				"_multiplyTuple((uint256,uint256),(uint256,uint256))": "infinite",
				"_reverseTuple((uint256,uint256))": "infinite",
				"_simpleAddTuple((uint256,uint256),(uint256,uint256))": "infinite",
				"_simpleDivideTuple((uint256,uint256),(uint256,uint256))": "infinite",
				"_simpleMultiplyTuple((uint256,uint256),(uint256,uint256))": "infinite",
				"_simpleSubtractTuple((uint256,uint256),(uint256,uint256))": "infinite",
				"_sort(uint256,uint256)": "infinite",
				"_subtractTuple((uint256,uint256),(uint256,uint256))": "infinite"
			}
		},
		"methodIdentifiers": {
			"_abbreviatable((uint256,uint256))": "21cbc8de",
			"_abbreviate((uint256,uint256))": "0dcbfe6f",
			"_addTuple((uint256,uint256),(uint256,uint256))": "67fa5c28",
			"_biggerTuple((uint256,uint256),(uint256,uint256))": "fa2870bc",
			"_commonDenominator((uint256,uint256),(uint256,uint256))": "880a8704",
			"_divideTuple((uint256,uint256),(uint256,uint256))": "27609465",
			"_gcd(uint256,uint256)": "93c55229",
			"_isbiggerTuple((uint256,uint256),(uint256,uint256))": "1c9d630d",
			"_lcm(uint256,uint256)": "90ecca67",
			"_multiplyTuple((uint256,uint256),(uint256,uint256))": "ed615706",
			"_reverseTuple((uint256,uint256))": "6ea8e4ce",
			"_simpleAddTuple((uint256,uint256),(uint256,uint256))": "4f285ccc",
			"_simpleDivideTuple((uint256,uint256),(uint256,uint256))": "cc055c0e",
			"_simpleMultiplyTuple((uint256,uint256),(uint256,uint256))": "39d0bcf5",
			"_simpleSubtractTuple((uint256,uint256),(uint256,uint256))": "8df922bd",
			"_sort(uint256,uint256)": "ded8f76d",
			"_subtractTuple((uint256,uint256),(uint256,uint256))": "0524035e"
		}
	},
	"abi": [
		{
			"inputs": [
				{
					"components": [
						{
							"internalType": "uint256",
							"name": "numerator",
							"type": "uint256"
						},
						{
							"internalType": "uint256",
							"name": "denominator",
							"type": "uint256"
						}
					],
					"internalType": "struct FractionTuple.Tuple",
					"name": "wantedTuple",
					"type": "tuple"
				}
			],
			"name": "_abbreviatable",
			"outputs": [
				{
					"internalType": "bool",
					"name": "",
					"type": "bool"
				}
			],
			"stateMutability": "view",
			"type": "function"
		},
		{
			"inputs": [
				{
					"components": [
						{
							"internalType": "uint256",
							"name": "numerator",
							"type": "uint256"
						},
						{
							"internalType": "uint256",
							"name": "denominator",
							"type": "uint256"
						}
					],
					"internalType": "struct FractionTuple.Tuple",
					"name": "wantedTuple",
					"type": "tuple"
				}
			],
			"name": "_abbreviate",
			"outputs": [
				{
					"components": [
						{
							"internalType": "uint256",
							"name": "numerator",
							"type": "uint256"
						},
						{
							"internalType": "uint256",
							"name": "denominator",
							"type": "uint256"
						}
					],
					"internalType": "struct FractionTuple.Tuple",
					"name": "",
					"type": "tuple"
				}
			],
			"stateMutability": "view",
			"type": "function"
		},
		{
			"inputs": [
				{
					"components": [
						{
							"internalType": "uint256",
							"name": "numerator",
							"type": "uint256"
						},
						{
							"internalType": "uint256",
							"name": "denominator",
							"type": "uint256"
						}
					],
					"internalType": "struct FractionTuple.Tuple",
					"name": "a",
					"type": "tuple"
				},
				{
					"components": [
						{
							"internalType": "uint256",
							"name": "numerator",
							"type": "uint256"
						},
						{
							"internalType": "uint256",
							"name": "denominator",
							"type": "uint256"
						}
					],
					"internalType": "struct FractionTuple.Tuple",
					"name": "b",
					"type": "tuple"
				}
			],
			"name": "_addTuple",
			"outputs": [
				{
					"components": [
						{
							"internalType": "uint256",
							"name": "numerator",
							"type": "uint256"
						},
						{
							"internalType": "uint256",
							"name": "denominator",
							"type": "uint256"
						}
					],
					"internalType": "struct FractionTuple.Tuple",
					"name": "",
					"type": "tuple"
				}
			],
			"stateMutability": "view",
			"type": "function"
		},
		{
			"inputs": [
				{
					"components": [
						{
							"internalType": "uint256",
							"name": "numerator",
							"type": "uint256"
						},
						{
							"internalType": "uint256",
							"name": "denominator",
							"type": "uint256"
						}
					],
					"internalType": "struct FractionTuple.Tuple",
					"name": "a",
					"type": "tuple"
				},
				{
					"components": [
						{
							"internalType": "uint256",
							"name": "numerator",
							"type": "uint256"
						},
						{
							"internalType": "uint256",
							"name": "denominator",
							"type": "uint256"
						}
					],
					"internalType": "struct FractionTuple.Tuple",
					"name": "b",
					"type": "tuple"
				}
			],
			"name": "_biggerTuple",
			"outputs": [
				{
					"components": [
						{
							"internalType": "uint256",
							"name": "numerator",
							"type": "uint256"
						},
						{
							"internalType": "uint256",
							"name": "denominator",
							"type": "uint256"
						}
					],
					"internalType": "struct FractionTuple.Tuple",
					"name": "",
					"type": "tuple"
				}
			],
			"stateMutability": "view",
			"type": "function"
		},
		{
			"inputs": [
				{
					"components": [
						{
							"internalType": "uint256",
							"name": "numerator",
							"type": "uint256"
						},
						{
							"internalType": "uint256",
							"name": "denominator",
							"type": "uint256"
						}
					],
					"internalType": "struct FractionTuple.Tuple",
					"name": "a",
					"type": "tuple"
				},
				{
					"components": [
						{
							"internalType": "uint256",
							"name": "numerator",
							"type": "uint256"
						},
						{
							"internalType": "uint256",
							"name": "denominator",
							"type": "uint256"
						}
					],
					"internalType": "struct FractionTuple.Tuple",
					"name": "b",
					"type": "tuple"
				}
			],
			"name": "_commonDenominator",
			"outputs": [
				{
					"components": [
						{
							"internalType": "uint256",
							"name": "numerator",
							"type": "uint256"
						},
						{
							"internalType": "uint256",
							"name": "denominator",
							"type": "uint256"
						}
					],
					"internalType": "struct FractionTuple.Tuple",
					"name": "",
					"type": "tuple"
				},
				{
					"components": [
						{
							"internalType": "uint256",
							"name": "numerator",
							"type": "uint256"
						},
						{
							"internalType": "uint256",
							"name": "denominator",
							"type": "uint256"
						}
					],
					"internalType": "struct FractionTuple.Tuple",
					"name": "",
					"type": "tuple"
				}
			],
			"stateMutability": "view",
			"type": "function"
		},
		{
			"inputs": [
				{
					"components": [
						{
							"internalType": "uint256",
							"name": "numerator",
							"type": "uint256"
						},
						{
							"internalType": "uint256",
							"name": "denominator",
							"type": "uint256"
						}
					],
					"internalType": "struct FractionTuple.Tuple",
					"name": "a",
					"type": "tuple"
				},
				{
					"components": [
						{
							"internalType": "uint256",
							"name": "numerator",
							"type": "uint256"
						},
						{
							"internalType": "uint256",
							"name": "denominator",
							"type": "uint256"
						}
					],
					"internalType": "struct FractionTuple.Tuple",
					"name": "dividingTuple",
					"type": "tuple"
				}
			],
			"name": "_divideTuple",
			"outputs": [
				{
					"components": [
						{
							"internalType": "uint256",
							"name": "numerator",
							"type": "uint256"
						},
						{
							"internalType": "uint256",
							"name": "denominator",
							"type": "uint256"
						}
					],
					"internalType": "struct FractionTuple.Tuple",
					"name": "",
					"type": "tuple"
				}
			],
			"stateMutability": "view",
			"type": "function"
		},
		{
			"inputs": [
				{
					"internalType": "uint256",
					"name": "a",
					"type": "uint256"
				},
				{
					"internalType": "uint256",
					"name": "b",
					"type": "uint256"
				}
			],
			"name": "_gcd",
			"outputs": [
				{
					"internalType": "uint256",
					"name": "",
					"type": "uint256"
				}
			],
			"stateMutability": "view",
			"type": "function"
		},
		{
			"inputs": [
				{
					"components": [
						{
							"internalType": "uint256",
							"name": "numerator",
							"type": "uint256"
						},
						{
							"internalType": "uint256",
							"name": "denominator",
							"type": "uint256"
						}
					],
					"internalType": "struct FractionTuple.Tuple",
					"name": "big",
					"type": "tuple"
				},
				{
					"components": [
						{
							"internalType": "uint256",
							"name": "numerator",
							"type": "uint256"
						},
						{
							"internalType": "uint256",
							"name": "denominator",
							"type": "uint256"
						}
					],
					"internalType": "struct FractionTuple.Tuple",
					"name": "small",
					"type": "tuple"
				}
			],
			"name": "_isbiggerTuple",
			"outputs": [
				{
					"internalType": "bool",
					"name": "",
					"type": "bool"
				}
			],
			"stateMutability": "view",
			"type": "function"
		},
		{
			"inputs": [
				{
					"internalType": "uint256",
					"name": "a",
					"type": "uint256"
				},
				{
					"internalType": "uint256",
					"name": "b",
					"type": "uint256"
				}
			],
			"name": "_lcm",
			"outputs": [
				{
					"internalType": "uint256",
					"name": "",
					"type": "uint256"
				}
			],
			"stateMutability": "view",
			"type": "function"
		},
		{
			"inputs": [
				{
					"components": [
						{
							"internalType": "uint256",
							"name": "numerator",
							"type": "uint256"
						},
						{
							"internalType": "uint256",
							"name": "denominator",
							"type": "uint256"
						}
					],
					"internalType": "struct FractionTuple.Tuple",
					"name": "a",
					"type": "tuple"
				},
				{
					"components": [
						{
							"internalType": "uint256",
							"name": "numerator",
							"type": "uint256"
						},
						{
							"internalType": "uint256",
							"name": "denominator",
							"type": "uint256"
						}
					],
					"internalType": "struct FractionTuple.Tuple",
					"name": "b",
					"type": "tuple"
				}
			],
			"name": "_multiplyTuple",
			"outputs": [
				{
					"components": [
						{
							"internalType": "uint256",
							"name": "numerator",
							"type": "uint256"
						},
						{
							"internalType": "uint256",
							"name": "denominator",
							"type": "uint256"
						}
					],
					"internalType": "struct FractionTuple.Tuple",
					"name": "",
					"type": "tuple"
				}
			],
			"stateMutability": "view",
			"type": "function"
		},
		{
			"inputs": [
				{
					"components": [
						{
							"internalType": "uint256",
							"name": "numerator",
							"type": "uint256"
						},
						{
							"internalType": "uint256",
							"name": "denominator",
							"type": "uint256"
						}
					],
					"internalType": "struct FractionTuple.Tuple",
					"name": "wantedTuple",
					"type": "tuple"
				}
			],
			"name": "_reverseTuple",
			"outputs": [
				{
					"components": [
						{
							"internalType": "uint256",
							"name": "numerator",
							"type": "uint256"
						},
						{
							"internalType": "uint256",
							"name": "denominator",
							"type": "uint256"
						}
					],
					"internalType": "struct FractionTuple.Tuple",
					"name": "",
					"type": "tuple"
				}
			],
			"stateMutability": "view",
			"type": "function"
		},
		{
			"inputs": [
				{
					"components": [
						{
							"internalType": "uint256",
							"name": "numerator",
							"type": "uint256"
						},
						{
							"internalType": "uint256",
							"name": "denominator",
							"type": "uint256"
						}
					],
					"internalType": "struct FractionTuple.Tuple",
					"name": "a",
					"type": "tuple"
				},
				{
					"components": [
						{
							"internalType": "uint256",
							"name": "numerator",
							"type": "uint256"
						},
						{
							"internalType": "uint256",
							"name": "denominator",
							"type": "uint256"
						}
					],
					"internalType": "struct FractionTuple.Tuple",
					"name": "b",
					"type": "tuple"
				}
			],
			"name": "_simpleAddTuple",
			"outputs": [
				{
					"components": [
						{
							"internalType": "uint256",
							"name": "numerator",
							"type": "uint256"
						},
						{
							"internalType": "uint256",
							"name": "denominator",
							"type": "uint256"
						}
					],
					"internalType": "struct FractionTuple.Tuple",
					"name": "",
					"type": "tuple"
				}
			],
			"stateMutability": "view",
			"type": "function"
		},
		{
			"inputs": [
				{
					"components": [
						{
							"internalType": "uint256",
							"name": "numerator",
							"type": "uint256"
						},
						{
							"internalType": "uint256",
							"name": "denominator",
							"type": "uint256"
						}
					],
					"internalType": "struct FractionTuple.Tuple",
					"name": "a",
					"type": "tuple"
				},
				{
					"components": [
						{
							"internalType": "uint256",
							"name": "numerator",
							"type": "uint256"
						},
						{
							"internalType": "uint256",
							"name": "denominator",
							"type": "uint256"
						}
					],
					"internalType": "struct FractionTuple.Tuple",
					"name": "dividingTuple",
					"type": "tuple"
				}
			],
			"name": "_simpleDivideTuple",
			"outputs": [
				{
					"components": [
						{
							"internalType": "uint256",
							"name": "numerator",
							"type": "uint256"
						},
						{
							"internalType": "uint256",
							"name": "denominator",
							"type": "uint256"
						}
					],
					"internalType": "struct FractionTuple.Tuple",
					"name": "",
					"type": "tuple"
				}
			],
			"stateMutability": "view",
			"type": "function"
		},
		{
			"inputs": [
				{
					"components": [
						{
							"internalType": "uint256",
							"name": "numerator",
							"type": "uint256"
						},
						{
							"internalType": "uint256",
							"name": "denominator",
							"type": "uint256"
						}
					],
					"internalType": "struct FractionTuple.Tuple",
					"name": "a",
					"type": "tuple"
				},
				{
					"components": [
						{
							"internalType": "uint256",
							"name": "numerator",
							"type": "uint256"
						},
						{
							"internalType": "uint256",
							"name": "denominator",
							"type": "uint256"
						}
					],
					"internalType": "struct FractionTuple.Tuple",
					"name": "b",
					"type": "tuple"
				}
			],
			"name": "_simpleMultiplyTuple",
			"outputs": [
				{
					"components": [
						{
							"internalType": "uint256",
							"name": "numerator",
							"type": "uint256"
						},
						{
							"internalType": "uint256",
							"name": "denominator",
							"type": "uint256"
						}
					],
					"internalType": "struct FractionTuple.Tuple",
					"name": "",
					"type": "tuple"
				}
			],
			"stateMutability": "view",
			"type": "function"
		},
		{
			"inputs": [
				{
					"components": [
						{
							"internalType": "uint256",
							"name": "numerator",
							"type": "uint256"
						},
						{
							"internalType": "uint256",
							"name": "denominator",
							"type": "uint256"
						}
					],
					"internalType": "struct FractionTuple.Tuple",
					"name": "a",
					"type": "tuple"
				},
				{
					"components": [
						{
							"internalType": "uint256",
							"name": "numerator",
							"type": "uint256"
						},
						{
							"internalType": "uint256",
							"name": "denominator",
							"type": "uint256"
						}
					],
					"internalType": "struct FractionTuple.Tuple",
					"name": "subtractingTuple",
					"type": "tuple"
				}
			],
			"name": "_simpleSubtractTuple",
			"outputs": [
				{
					"components": [
						{
							"internalType": "uint256",
							"name": "numerator",
							"type": "uint256"
						},
						{
							"internalType": "uint256",
							"name": "denominator",
							"type": "uint256"
						}
					],
					"internalType": "struct FractionTuple.Tuple",
					"name": "",
					"type": "tuple"
				}
			],
			"stateMutability": "view",
			"type": "function"
		},
		{
			"inputs": [
				{
					"internalType": "uint256",
					"name": "a",
					"type": "uint256"
				},
				{
					"internalType": "uint256",
					"name": "b",
					"type": "uint256"
				}
			],
			"name": "_sort",
			"outputs": [
				{
					"internalType": "uint256",
					"name": "",
					"type": "uint256"
				},
				{
					"internalType": "uint256",
					"name": "",
					"type": "uint256"
				}
			],
			"stateMutability": "view",
			"type": "function"
		},
		{
			"inputs": [
				{
					"components": [
						{
							"internalType": "uint256",
							"name": "numerator",
							"type": "uint256"
						},
						{
							"internalType": "uint256",
							"name": "denominator",
							"type": "uint256"
						}
					],
					"internalType": "struct FractionTuple.Tuple",
					"name": "a",
					"type": "tuple"
				},
				{
					"components": [
						{
							"internalType": "uint256",
							"name": "numerator",
							"type": "uint256"
						},
						{
							"internalType": "uint256",
							"name": "denominator",
							"type": "uint256"
						}
					],
					"internalType": "struct FractionTuple.Tuple",
					"name": "subtractingTuple",
					"type": "tuple"
				}
			],
			"name": "_subtractTuple",
			"outputs": [
				{
					"components": [
						{
							"internalType": "uint256",
							"name": "numerator",
							"type": "uint256"
						},
						{
							"internalType": "uint256",
							"name": "denominator",
							"type": "uint256"
						}
					],
					"internalType": "struct FractionTuple.Tuple",
					"name": "",
					"type": "tuple"
				}
			],
			"stateMutability": "view",
			"type": "function"
		}
	]
}